:020000040000fa
:08000000000e040000000000e6
:020000040000fa
:10000800020c0000060c00000a0c00000e0c000098
:10001800120c0000160c00001a0c00001e0c000048
:10002800220c0000260c00002a0c00002e0c0000f8
:10003800320c0000360c00003a0c00003e0c0000a8
:10004800420c0000460c00004a0c00004e0c000058
:10005800520c0000560c00005a0c00005e0c000008
:10006800620c0000660c00006a0c00006e0c0000b8
:10007800720c0000760c00007a0c00007e0c000068
:10008800820c0000860c00008a0c00008e0c000018
:10009800920c0000960c00009a0c00009e0c0000c8
:1000a800a20c0000a60c0000aa0c0000ae0c000078
:1000b800b20c0000b60c0000ba0c0000be0c000028
:1000c800c20c0000c60c0000ca0c0000ce0c0000d8
:1000d800d20c0000d60c0000da0c0000de0c000088
:1000e800e20c0000e60c0000ea0c0000ee0c000038
:1000f800f20c0000f60c0000fa0c0000fe0c0000e8
:10010800020d0000060d00000a0d00000e0d000093
:10011800120d0000160d00001a0d00001e0d000043
:10012800220d0000260d00002a0d00002e0d0000f3
:10013800320d0000360d00003a0d00003e0d0000a3
:10014800420d0000460d00004a0d00004e0d000053
:10015800520d0000560d00005a0d00005e0d000003
:10016800620d0000660d00006a0d00006e0d0000b3
:10017800720d0000760d00007a0d00007e0d000063
:10018800820d0000860d00008a0d00008e0d000013
:10019800920d0000960d00009a0d00009e0d0000c3
:1001a800a20d0000a60d0000aa0d0000ae0d000073
:1001b800b20d0000b60d0000ba0d0000be0d000023
:1001c800c20d0000c60d0000ca0d0000ce0d0000d3
:1001d800d20d0000d60d0000da0d0000de0d000083
:1001e800e20d0000e60d0000ea0d0000ee0d000033
:0801f800f20d0000f60d0000fd
:020000040000fa
:10020800020c0000060c00000a0c00000e0c000096
:10021800120c0000160c00001a0c00001e0c000046
:10022800220c0000260c00002a0c00002e0c0000f6
:10023800320c0000360c00003a0c00003e0c0000a6
:10024800420c0000460c00004a0c00004e0c000056
:10025800520c0000560c00005a0c00005e0c000006
:10026800620c0000660c00006a0c00006e0c0000b6
:10027800720c0000760c00007a0c00007e0c000066
:10028800820c0000860c00008a0c00008e0c000016
:10029800920c0000960c00009a0c00009e0c0000c6
:1002a800a20c0000a60c0000aa0c0000ae0c000076
:1002b800b20c0000b60c0000ba0c0000be0c000026
:1002c800c20c0000c60c0000ca0c0000ce0c0000d6
:1002d800d20c0000d60c0000da0c0000de0c000086
:1002e800e20c0000e60c0000ea0c0000ee0c000036
:1002f800f20c0000f60c0000fa0c0000fe0c0000e6
:10030800020d0000060d00000a0d00000e0d000091
:10031800120d0000160d00001a0d00001e0d000041
:10032800220d0000260d00002a0d00002e0d0000f1
:10033800320d0000360d00003a0d00003e0d0000a1
:10034800420d0000460d00004a0d00004e0d000051
:10035800520d0000560d00005a0d00005e0d000001
:10036800620d0000660d00006a0d00006e0d0000b1
:10037800720d0000760d00007a0d00007e0d000061
:10038800820d0000860d00008a0d00008e0d000011
:10039800920d0000960d00009a0d00009e0d0000c1
:1003a800a20d0000a60d0000aa0d0000ae0d000071
:1003b800b20d0000b60d0000ba0d0000be0d000021
:1003c800c20d0000c60d0000ca0d0000ce0d0000d1
:1003d800d20d0000d60d0000da0d0000de0d000081
:1003e800e20d0000e60d0000ea0d0000ee0d000031
:0803f800f20d0000f60d0000fb
:020000040000fa
:10180000020000009e390400000000009e39040020
:10181000000000009e390400000000009e39040012
:10182000000000009e390400000000009e39040002
:10183000000000009e390400000000009e390400f2
:10184000000000009e390400000000009e390400e2
:10185000000000009e390400000000009e390400d2
:10186000000000009e390400000000009e390400c2
:10187000000000009e39040000000000043e040047
:1018800000000000143e0400000000009e39040027
:10189000000000009e390400000000009e39040092
:1018a000000000009e390400000000009e39040082
:1018b000000000009e390400000000009e39040072
:1018c000000000009e390400000000009e39040062
:1018d000000000009e390400000000009e39040052
:1018e000000000009e390400000000009e39040042
:1018f000000000009e390400000000009e39040032
:10190000000000009e390400000000009e39040021
:10191000000000009e390400000000009e39040011
:1019200000000000423f0400000000009e39040057
:10193000000000009e390400000000009e390400f1
:10194000000000009e390400000000009e390400e1
:10195000000000009e390400000000009e390400d1
:10196000000000009e390400000000009e390400c1
:10197000000000009e390400000000009e390400b1
:10198000000000009e390400000000009e390400a1
:10199000000000009e390400000000009e39040091
:1019a000000000009e390400000000009e39040081
:1019b000000000009e390400000000009e39040071
:1019c000000000006e3f0400000000009e3904008b
:1019d000000000009e390400000000009e39040051
:1019e000000000009e390400000000009e39040041
:1019f000000000009e390400000000009e39040031
:101a0000000000009e390400000000009e39040020
:101a1000000000009e390400000000009e39040010
:101a2000000000009e390400000000009e39040000
:101a3000000000009e390400000000009e390400f0
:101a4000000000009e390400000000009e390400e0
:101a5000000000009e390400000000009e390400d0
:101a6000000000009e390400000000009e390400c0
:101a7000000000009e390400000000009e390400b0
:101a8000000000009e390400000000009e390400a0
:101a9000000000009e390400000000009e39040090
:101aa000000000009e390400000000009e39040080
:101ab000000000009e390400000000009e39040070
:101ac000000000009e390400000000009e39040060
:101ad000000000009e390400000000009e39040050
:101ae000000000009e390400000000009e39040040
:101af000000000009e390400000000009e39040030
:101b0000000000009e390400000000009e3904001f
:101b1000000000009e390400000000009e3904000f
:101b2000000000009e390400000000009e390400ff
:101b3000000000009e390400000000009e390400ef
:101b4000000000009e390400000000009e390400df
:101b5000000000009e390400000000009e390400cf
:101b6000000000009e390400000000009e390400bf
:101b7000000000009e390400000000009e390400af
:101b8000000000009e390400000000009e3904009f
:101b9000000000009e390400000000009e3904008f
:101ba000000000009e390400000000009e3904007f
:101bb000000000009e390400000000009e3904006f
:101bc000000000009e390400000000009e3904005f
:101bd000000000009e390400000000009e3904004f
:101be000000000009e390400000000009e3904003f
:041bf00000000000f1
:020000040000fa
:101c00006faf20000e7f22000e0188000000000050
:101c100000012000200288000c000700a05d2400c5
:101c20000100200011000700000020000000e0007b
:101c3000020032000000020000000000e04102004b
:101c4000000000000040da000000fe004440a9004f
:101c5000e0a320000000e0000300320000002000ac
:101c6000a00188004440a8000000060091018800ff
:101c7000800078000000eb0015003700e280400093
:101c800032a0b4009101ba00e280400032a0b4005a
:101c90009102ba00e280400032a0b4000002eb00e2
:101ca000472bde00f507b200602ce10004003a008b
:101cb0000059eb008301e900fdff3e0004003700fe
:101cc0006128e100010032000082eb0004000700ff
:101cd0001101ba000200e000e8ff3a00000006002f
:101ce0003159ba008301e9000c0032002159ba00d1
:101cf0008301e900080032000400e00003003a001c
:101d0000e280400032a0b400f5ff370011d9ba00dc
:101d10008301e900faff3a008100e800e180400019
:101d200032a0b400000006001004b1000700350026
:101d30009001b100040034007000b10003003500d0
:101d40009001b10001003c001000050000000500fa
:101d50006900e100040035006d00e100030034007b
:101d60000002b10001003200000005001000050073
:101d70001004b100030035009001b10001003c00e7
:101d80001000050000000500800078001104b1007b
:101d9000030035009101b10001003c000050a0009b
:101da0000000060003f0a200889fbe008a9fbe00cc
:101db0008c1f780009010700100133006450e10016
:101dc0004f0032006420e1005200320003826c00b8
:101dd00007003b000905d0000306d000820f540025
:101de0000c065d0002003900020032008901780013
:101df000030678008582550004003d000003fd00c5
:101e00008103fd008502ea008b854200840f720089
:101e100002003b0060001000e08018006011b80074
:101e20000005eb007a28e1000a003900060078007e
:101e3000c75ddd00f707b200878075002d00370011
:101e4000828171000a017800610560008180d10003
:101e50000080d3008502e900f9ff3b000604400042
:101e60008784480002003b0060041400e0841c00ea
:101e70000988a300070032008a8171008281710005
:101e8000610164008904d1000884d3008b05e80057
:101e9000170037000978a30013003a000b00e00098
:101ea000130034008b05e9000804440089844c00c9
:101eb0000a4474000978a3000d003a000b00e0000a
:101ec000070034008b05e9000804440089844c00b5
:101ed00001003a000b0020000978a300f7ff320050
:101ee0000001eb0002003700828171000a017800d6
:101ef0007f0007000cf0a70001f0a000c800370029
:101f00006420e10002003a00838f6c00c8003300b7
:101f10000801be000200be00c1003700889fbe005d
:101f20008a9fbe008c1f7800ac000700b30033000e
:101f300003866c006450e1002e0032006420e10052
:101f4000330032006150e1002f0032006120e100d7
:101f50003100320085855500eb07b00009002000f4
:101f600008042000050037000804440089844c0060
:101f70000a0031000603430087834b000001530031
:101f800081815b00f8ff33000203be000800a0005f
:101f90000804440089844c00f6ff3900c639dd008e
:101fa0008301730001003200130020008904d10076
:101fb0000884d3000998a300050032000800a70098
:101fc0000300a0008904d1000884d3008b05e80039
:101fd0008904d1000884d3000001eb000281d20003
:101fe0004300070001f0a1000cf0a70001f0a000e1
:101ff0008b0037006420e1008d0032000801be0034
:102000000200be00f7ff37006120e10088003200c7
:102010006000b800f3ff37000000200001f827003f
:10202000f0ff3700839f68000100e00002003d00e0
:1020300060001000e08018000300e00002003d0096
:1020400060011100e0811900b00007004f00e000be
:1020500002003b0060001000e08018000000060055
:1020600014002000b9003700f4ff2f00b70037003c
:102070000001be00440007000470a70003f0a100a7
:1020800003f8a30013003a006509b1001000320004
:10209000090035006928e100020035000100280030
:1020a0000000050000004000818048008502e90032
:1020b000fcff3a0000000600f88f420005003500e2
:1020c0008100d1000080d3008502e800fcff3a00c7
:1020d000000006008000eb00000005004f89de00d4
:1020e00082017800b40037006011b800c2003700e8
:1020f00081002000618055000b003d000b00200096
:1021000061fe2f000100e1001d003400828171009a
:10211000610164008904d1000884d3000000e80054
:10212000faff3a00710020006100640003007000b3
:10213000020060000900320061044400e0844c00a9
:102140000988a500050032008b05e8006808e10059
:1021500002003a008904d1000884d300f20f200065
:102160000258e10005003d00c75ddd00f907b2003f
:102170008980750008007800000006000bf8270031
:102180008b00780000000500c70ade00f107b200ee
:10219000f50fb20008003200e1cf42000200320029
:1021a0000170a00024000500810f700001003200c2
:1021b0000408050044000500810f700002003a0089
:1021c000140005008502e9000000400081c04800bd
:1021d000fcff3b000170a000240005000004be00cd
:1021e000e9ff07000003be000405be000200be00b8
:1021f000e5ff0700844f7500000006000200be00e6
:102200006450e100050036006420e1000200360061
:102210000968a30001003a000800be000160a000a8
:102220004f0678004f05be004f04be0000000600b8
:10223000f0ff2f00f1ff2700f9ff3700889fbe0055
:102240008a9fbe008c1f7800e4ff0700ebff33007d
:1022500003866c006450e100240032006420e10039
:10226000270032006150e100220032006120e100cd
:10227000210032008b854200eb07b1000134b80029
:10228000003ab8000804420089844a00013ab800c4
:102290000030b8008880400009014a000400330083
:1022a0000000400081804800020149008b05e900e0
:1022b000c909dd0083017000010032001300200015
:1022c000c814de004814dd004709de001200b20029
:1022d000c808de000884700085ff070001f0a10037
:1022e0000cf0a70001f0a000cdff37006120e10055
:1022f000cfff32000801be000200be00f7ff37002a
:102300006150e100fcff3a00c9ff37006022b800cd
:10231000060220000000d0008180d2000482d2009a
:102320008582d2000000a0000202520083825a007f
:10233000030031000202420083824a000000a10033
:102340000603e900f3ff3a0000000600889fbe0084
:102350008a9fbe00841f7800a0ff07004f0078000e
:1023600011003300f0ff2f00838f6c0006003b004c
:10237000040565000a00a7000800370009f0a60060
:102380001000200008003700820f5400838f5c008b
:10239000030039001000200001003e000000200072
:1023a00009f0a7000000ea004f05be004f04be0080
:1023b0000000e00000000600881f78000304780099
:1023c0000300e00007003d0060001000e0801800fe
:1023d00060011900e081190002003b0001f02d00ae
:1023e000030037000400070008f0a70001f0a00078
:1023f0004f04780000000600889fbe008a9fbe0040
:102400000082700004027100048271002600320014
:102410000004be000200be006011b8006b0920007d
:10242000950220000182cf000a0039000541b10069
:102430000082cf00070039000541b1000982cf00ba
:10244000040039000541b1000882cf0001003900c5
:102450000541b10005425200120032000a003b0063
:1024600082817100610164008100d1000080d3008d
:102470008984d3000884d3008b05e8000442e80077
:10248000f7ff3a00070037000804440089844c0035
:1024900000004800818048008b05e9000442e90003
:1024a000f9ff3a0012ff07004f05be004f04be00bf
:1024b00000000600889fbe000004be000500370033
:1024c0000000fb008900780045020700e10f400092
:1024d0000400320038407800e04f5000f8ff3a0026
:1024e0000000eb004f04be0000000600881f7800cb
:1024f000e1a62000efff070000047800e1a620001d
:10250000a000200036020700080078004f04780081
:10251000000006000c00fa00a0bf9f00c0bf9f0093
:1025200073020700b0bf9f00f0bf9f00140c200093
:10253000d4bf9f0074815700efb097006c805700a4
:10254000340007000080fa0000000600881f7800b1
:1025500080548000a1010700000478000800780082
:10256000fbfd0700e00f5000f9ff3a00e10f4400c7
:1025700003003200815480000800780063020700e5
:102580004f04780000000600889fbe008a1f780074
:1025900000047800814478000205780004fd2f00d3
:1025a00008024200e90f520002003e0004047800d5
:1025b0000f00370008007800edfd0700e00f500025
:1025c00005003200e00f55000300320008007800db
:1025d000edfd07000004780008007800d2fd070038
:1025e00000c2eb00e00f5000060032007805b10099
:1025f0008984fb0000c2eb00890f540001003d00fc
:1026000008427800044078004f0578004f04be006f
:1026100000000600f0874700889fbe008a9fbe002a
:102620008c9fbe008e1f780081bf9f00020778003c
:10263000805488000002eb00d4b79f000444780067
:10264000350137008fba97008502e80085bf9f00eb
:102650008985fb000b007800bdfd0700e00f5000ee
:1026600002003200b9ff07002b01370054c2b3004b
:1026700084cf54001c013a008044780025c0b30088
:10268000004578000fb8970005467800800578006f
:10269000040037004cc0b300010037002cc0b30069
:1026a0000b0078003b42780095c6b300854f52007e
:1026b000960032001d003e00e6c25200854f5200d7
:1026c0006a00320012003e00f7c25200854f5200ed
:1026d0002f00320006003e00e04f5200aa003200f8
:1026e000a5c2b300854f520074003a00260037009f
:1026f00085c5b300854f520070003a009cef9f00e3
:102700008bbf9f0015002000d5b79f001c0037002d
:1027100045c6b300854f52007c003200e4c242003f
:10272000854f520065003a00dcff370035c7b30023
:10273000854f52001a00320007003e00e7c25200e7
:10274000854f520012003200e3c24200854f520012
:102750005a003a007100370055c7b300854f520048
:102760006a003200e3c24200854f520053003a0033
:102770009cef9f008bbf9f000002eb00d4b79f002f
:102780000bc1b300680037000a45e800c4ff3700fa
:10279000e24f5600bfff32008cc0b300c0ff3700cd
:1027a0008bbf9f0069ff0700e04f550002003a0011
:1027b0004e027800e4b79f008054800007010700b4
:1027c00080057800e18f450014003a000b00780086
:1027d000ce0037008fba97001502fb00848f55009a
:1027e00005003a000c027800e4b79f008502e8007b
:1027f00085bf9f0017003700e04f550001003a00e9
:102800000b5e78008944e9000d003200805480009e
:10281000f200070080057800010037006fb69700ce
:102820000b02e800e10f5200080036000b007800b0
:1028300047fd0700e00f5000e6ff320003003700bd
:102840000c027800e4b79f00020037008c02780089
:10285000e5b79f00e04f5500af003a000844e8009c
:102860006fb297000a4a7800ab0037008bbf9f0019
:10287000e04f550003003a000844e800ce05780018
:1028800001003700efb5970080548000d3000700a7
:10289000e10f40009d003200e04f550001003a007a
:1028a000805d78008944e9004240a900f6ff3c00c1
:1028b0000b027800e4b79f00970037008484fb0088
:1028c00004fd2f0009024200e90f520009003e00fa
:1028d000a3000700804478000b027800840578008c
:1028e000b402fb000503b100e98f5200fbff360084
:1028f0006bff37008bbf9f0080548000b70007003c
:10290000808f54007c003a00830037009cef9f00ca
:102910008bbf9f00abc0b300030037009cef9f004c
:102920008bbf9f008bc0b30008ff0700805480005e
:10293000aa000700f0b79f008042eb0085ef9f00e0
:10294000d402200080027800848f520005003a00f3
:1029500080548000a1000700f0b79f0014c0b300ae
:1029600084ef9f005fb197008b4078007fb09700a5
:1029700005ff0700e14f40000b003a008154800042
:102980007fb0970061010700e04f540066003a00f5
:1029900084548000340090007000600063003200b6
:1029a0000080eb006100370004032000ffb29700b5
:1029b000848f520015003a00805480008700070081
:1029c00084072000840f500004003a005fb2970093
:1029d000e00f5200070032000a0037008405200093
:1029e000840f500007003a00dfb29700e08f5200da
:1029f000040032008054800078000700f0b79f0088
:102a00000200370081548000400107006066b80072
:102a10000b82fb0005002000a4b79f00b5b79f0004
:102a20002fb19700bfb197000c00be005e090700f0
:102a30000006be005fb197008b4078007fb0970022
:102a4000d1fe07000080fb000100200000064600c8
:102a500081864e008944e9000800320080548000dd
:102a60005e000700f0b79f005fb197008b407800d1
:102a7000c5fe0700e14f4000e9ff3a005fb1970053
:102a80008b4078007fb09700bffe0700e14f400009
:102a900003003a00815480007fb097001b010700bb
:102aa0008fea9700e0cf5200020032006006160065
:102ab000e0861e00e04f550017003a000844e80089
:102ac0000e87e9001fea9700e44f520003003a0026
:102ad0001e0278000c8abe000f0037001e0278002c
:102ae0000c0a78000c003700805480003b0007007f
:102af000808f550008003200e10f400003003200d3
:102b0000815480000101070007003700e04f5400a6
:102b100005003a00050037000fba9700944478008a
:102b2000e0cf5400c7fe3a000880fb004f07780052
:102b30004f06be004f05be004f04be000f01b1009e
:102b4000000006000000fa0068815700cfb8970027
:102b5000e0a62000c60107000080fa000000060081
:102b600006c2b3000002780004007800b04278008a
:102b700086cf5200fbff3200e9cf5200f9ff32004e
:102b8000d6c2b30086cf520003003a00000278009c
:102b900016c0b300050037000043eb00b7c2b30016
:102ba00087cf520001003a00000278000000eb00dd
:102bb000020037006a00b90000804200b402fb0046
:102bc0000503b100e98f5200faff3600e04f5300d1
:102bd000010032000000ea0000000600881f7800b3
:102be0000004780038029000f1026200e18f520088
:102bf00006003a00840278000520b2000800320086
:102c000098029000e08f52000500320038029000d8
:102c10000440a000340498000080eb00200037003e
:102c20000490a1003404980018029000e00f5200b4
:102c3000070034000402e900140498001802780028
:102c4000944278000580fb00040ce8000500370082
:102c5000380290000404b200ecff3a00080078004b
:102c600011000700380290000408b2000c003a007e
:102c7000fa0f500008003a0028029000e00f5200be
:102c8000e2ff3200180290000402e80014049800e9
:102c9000180ce900ddff3700ed0f5000e2ff3200b5
:102ca0004f047800000006000200fa00889fbe0072
:102cb0008a9fbe00000478000002eb001404980014
:102cc00038029000610262000080eb004000320098
:102cd00084a820008042eb0094cf12000f00320045
:102ce0006ba82000c9fd2f008b8444002a1020000f
:102cf000390290002410b2008a0f520002003a00fc
:102d000009007800a5050700ec8444008b8f54006f
:102d1000f7ff3a0084a82000004aeb005801900019
:102d2000e00f51000e003a0012049800120020003b
:102d3000ea8057004800900059160700e10f500044
:102d400003003a006ff297000480fb002000370078
:102d5000380290000440a0003404980013003700ab
:102d6000a8009000480090004d160700100498003d
:102d7000e00f500003003200e10f40000d003a0068
:102d800003003700380290000440a0000200370022
:102d9000380290000403b30034049800a8029000a5
:102da000050c78000002eb00140498000080eb0092
:102db0000700370028029000040c78000000e900aa
:102dc00010049800944278000580fb00040ce80091
:102dd0004f05be004f04be000080fa000000060050
:102de000889fbe000104780038029000e202620071
:102df0008084eb003b003200040378000620b20020
:102e00009802900002003a00e08f520035003a002c
:102e10000490a0003404980080047800f90fb200f8
:102e2000e08f520002003a00a8029000050c7800e2
:102e3000ea8f540005003a000408b20003003a008b
:102e400088007800d0002000e5ff070018029000fd
:102e5000d8029000850f52000b0032000402e800f7
:102e60001404980018027800094a7800040ce8005d
:102e700015c0b30084a82000054a7800ea8f5400ea
:102e800018003a00050037008800780009407800f3
:102e90006c050700800478001200370038029000ab
:102ea0000410b2000f00320018019000a80090003a
:102eb00048009000a705070018029000840f5000fa
:102ec00004003200380290000403b3003404980078
:102ed0008084eb000002eb001404980028029000ac
:102ee000040c7800090078004f04be0000000600c2
:102ef000000278008042eb00b4cf1200fdff3a00e0
:102f00000080ea000000420000000600e10f4000df
:102f100019003200310290001420b200e10f52007b
:102f200012003a0021039000e00f53000f0032001e
:102f300011029000d1029000850f52000d00320066
:102f400091027800868f520002003a008508e8005e
:102f5000020037000402e800940098001102e90022
:102f600084087800004a7800000006000080eb002a
:102f7000000006000080eb00000006000800fa00d8
:102f8000889fbe008a9fbe000084fb00d4c6b300a9
:102f9000844f5000340036004b0620001100090019
:102fa0000b84d80081057800720040004300dd00ea
:102fb000898e2000008044006022b80006002000b6
:102fc00007fe23005001be004000be00540707006a
:102fd0000002be000203be0084bf9f0095bf9f0099
:102fe000a6bf9f00b7bf9f00aa00200011000900e4
:102ff0008a85d80080057800e9854500c35ddd003d
:103000008b8544003b02be002b03be000fb8970027
:103010009fb897002fb99700bfb9970040070700e6
:103020000002be000203be0084bf9f0095bf9f0048
:10303000a6bf9f00b7bf9f00110009000a84d800f7
:10304000010478004344dd00888444003902be0056
:103050002903be000fb897009fb897002fb99700bb
:10306000bfb997001d003700ea4f5000130036002b
:10307000aa002000110009000a84d8000105780088
:10308000690440004344dd00898e20000884440028
:103090006022b8000600200007fe23003800be00b2
:1030a0002801be001e0707004355dd008a84440046
:1030b0003902be002903be00080037004344dd008a
:1030c000848e2000080442006022b8000600200020
:1030d00007fe23003800be002801be0010070700cd
:1030e0004f05be004f04be000080fa00000006003d
:1030f0000800fa00889fbe008a9fbe00d4c6b300b5
:10310000e04f500022003d000040ea000004fb00b8
:10311000844f50000a0034004406200011000900ca
:103120000404d800a9002000110009008900d8007b
:10313000e9004000c308dd008a8e2000200037002f
:10314000ea4f50000f003400a400200011000900d5
:103150000404d800690040004300dd00848e200094
:1031600000004200430cdd00080242005403be0090
:103170004402be005001be004000be00e806070049
:10318000370037004344dd00848e200031003700d3
:103190000004fb00844f500023003400440620004c
:1031a000110009000404d800a90020001100090042
:1031b0008900d800e9004000c308dd008a832000b0
:1031c000810045003102be002103be008b092000b2
:1031d0008a8545003b00be002b01be00d0060700db
:1031e0000002be000203be0084bf9f0095bf9f0087
:1031f000a6bf9f00b7bf9f00110009000904d800b7
:10320000010478004344dd00080545003a02be0091
:103210002a03be000fb897009fb897002fb99700f8
:10322000bfb99700d5ff3700ea4f500007003400c0
:10323000a4002000110009000404d8006900400027
:103240004300dd0084832000c5ff37004344dd00d8
:1032500084832000080442003800be002801be001c
:103260004f05be004f04be000080fa0000000600bb
:103270002f04b000889fbe008a9fbe008c9fbe00b6
:103280008e1f7800a0af9f00c1a79f00b2af9f0024
:103290006000b8006011b800d0a79f00e1a79f00b0
:1032a000f2a79f0083af9f008006eb002f0437003a
:1032b000cfa097008100e800c1a79f0054c2b300cf
:1032c000844f500006003a00010378000006eb002e
:1032d00000c3b30007c2b300b1c2b3000700370098
:1032e0000000fb00afa89700bdfe0700e10f400003
:1032f0001e0432008d06e8001c0437000602780028
:10330000b6427800d2c2b30082cf52000900320028
:1033100005003c0087cf52000800320081cf5200e8
:103320000c003a000700370080cf520009003a0035
:10333000060037000c30a000f0ff37000c00a000a2
:10334000eeff37000c10a000ecff37000c20a000af
:10335000eaff370062036600010032000c00a100a2
:1033600068036600010032000c20a1000503fb0089
:103370000603b100e90f53000d003e0084027800ff
:10338000070020006a3bb9003502fb000403b100ce
:1033900086034200050278001503fb000603b10016
:1033a000e90f5300f7ff360097af9f000a00370080
:1033b0000003eb0096af9f00a6c2b30086cf520079
:1033c00005003a00bfab970047007800b7af9f00f9
:1033d00090af9f000402e800e5c2b30094cf120052
:1033e00017003a000ce0a000e4c25200d4cf120053
:1033f0000300320084027800070020000900370033
:103400003fa99700c2017800b2af9f0083b79f0029
:103410000402e800c6c6b3000d0037006a38b900e0
:1034200080034300050278003503fb000603b1006a
:10343000e90f5300f9ff360087b79f00f5ff37000b
:103440000cc0a0008002eb0085b79f00f1ff3700a1
:1034500084037800b74278000702780086cf5200d4
:103460002d003200c7a79f00c4c6b30084cf52000e
:1034700014003c006842520084cf52002400320005
:1034800009003c006c42520084cf52002e003200f2
:103490006b42420084cf520071003200e0cf5200f4
:1034a000b70332008e00370064c6b30084cf5200e9
:1034b0001f0032006342420084cf520088003a006d
:1034c0001300370034c7b30084cf5200220032000b
:1034d00007003c006442520084cf520017003200c3
:1034e0000442e80084cf52007d003a001600370005
:1034f00054c7b30084cf52007e00320063424200c2
:1035000084cf520076003a00a5779f001000370064
:10351000a5779f0079003700f003660005012000c1
:10352000010032000500280005067600c8ff3700bc
:10353000a5779f000ca0a00070003700a5779f0022
:103540000c60a0006d003700a5779f000c50a00014
:103550000c70a00069003700a5779f003fab970073
:1035600046027800b6af9f0004047800e00f5200d6
:1035700001003a00a8a52000880278000002eb00b4
:10358000010037000402e80065437a00e04f530071
:10359000fcff3a00840478008fb39700e08f53005b
:1035a00003003200898f5300010031008704780046
:1035b0000007eb001fa89700890f5000010036009c
:1035c000090750006806660014003a00070037003b
:1035d000afa897000002200001fe0700e10f4000a5
:1035e000010032008d06e8000e07e900e00f5700e9
:1035f000f7ff3a000087eb00080037000802780068
:103600003400fb0004047800afa89700f4fd070025
:10361000e10f4000010032008d06e8000902780049
:103620008404e900e00f5200f4ff3a00e00f560076
:103630004e03320007003700afa8970000022000b9
:10364000e7fd0700e10f4000010032008d06e800b1
:103650000e07e900e00f5700f7ff3a004303370079
:10366000bfa8970041027800b1af9f000400780026
:10367000cf80de000101780082017800c0af9f009a
:10368000d1af9f00e2af9f00f3af9f004800de0084
:10369000480add0000007200a0779f00f00266007b
:1036a00009003200e04f500007003200e14f4000b7
:1036b00005003200b0779f008fda9700c5779f0032
:1036c00029002000030037000fdb9700b6779f002a
:1036d0001900200038fb2f000f044400aeff370014
:1036e000a5779f0028fb2f000f044400190020003d
:1036f000a9ff3700a5779f000c0cb30004702000d1
:1037000004026600ba0132000400210004026600cf
:10371000020032006700200087b79f007002660039
:10372000090032003faa97004401be004400be00d9
:10373000b4af9f00c0af9f00d1af9f00e2af9f002a
:10374000f3af9f000a003700bfaa97004500be00f4
:10375000b5af9f00da0407000002be000203be00fe
:10376000c4af9f00d5af9f00e6af9f00f7af9f00ab
:103770006022b8006033b8004fa89700dfa8970018
:103780006fa99700ffa997001f040700e00f5000e2
:103790000a003d004fa89700dfa897006fa9970087
:1037a000ffa9970003f0a200c0af9f00d1af9f0018
:1037b000e2af9f00f3af9f003c00b3000002eb00bc
:1037c000b49f9f006022b8006033b8004fa89700f4
:1037d000dfa897006fa99700ffa997006e04070064
:1037e000e00f5000350032004fa89700dfa8970087
:1037f0006fa99700ffa99700c005070062fb2f0083
:103800000f014100290507003f9897000000e900db
:103810006300b900a4002000110009000400d800d2
:10382000b09f9f00e00f500002003d000000e90043
:10383000b09f9f003f9c97000840ea002cfe0700c5
:103840004faa9700dfaa97006fab9700ffab9700d6
:10385000330507000002be000203be00d4a79f008c
:10386000e5a79f00f6a79f0087af9f006022b800e2
:103870000600200007ff2300e3030700e00f5000cd
:1038800002003d000804e9000b0037006022b80088
:1038900006002000470224005fa09700efa09700d9
:1038a0007fa197008fa99700dc030700e00f50006d
:1038b000020035000804e800b89f9f008fb297000f
:1038c000f88f52000f003c0005407800abfd070068
:1038d0000002be000203be004fa89700dfa89700b9
:1038e0006fa99700ffa997004a0307000002be00d6
:1038f0000203be00c4af9f00d5af9f00e6af9f009c
:10390000f7af9f003f9c9700e90f540015003c0063
:103910006022b8006033b8004fa89700dfa8970076
:103920006fa99700ffa997001b040700e00f500044
:10393000320032004fa89700dfa897006fa99700c8
:10394000ffa997007d040700e00f5000e08f5800aa
:10395000e00f5900e08f590028003a00e10f5400b1
:10396000260034000400200005002e00b6e02200ee
:10397000170124005fa09700efa097007fa1970098
:103980008fa99700a0030700e00f500002003d0040
:10399000730454000100370072045400b89f9f0064
:1039a0006f709700d2fd07000002be000203be0048
:1039b000d4a79f00e5a79f00f6a79f0087af9f00b1
:1039c0004fa89700dfa897006fa99700ffa997005d
:1039d00097030700590407000205be000004be005b
:1039e0006000b8006011b800c0af9f00d1af9f0069
:1039f000e2af9f00f3af9f00170037004fa897007a
:103a0000dfa897006fa99700ffa997004b04070054
:103a10000205be000004be00790407000002be00db
:103a20000203be004fa89700dfa897006fa9970078
:103a3000ffa997002f0507000002be000203be0089
:103a4000c4af9f00d5af9f00e6af9f00f7af9f00c8
:103a50000002eb00b49f9f00019a200010c0b30049
:103a6000080037003102be003103be000440e1000f
:103a700005c8e10006d0e10007d8e10003003900e5
:103a80000040e800f44f5000f6ff3a00a0779f0096
:103a90003f9a97009faa9700048252000fb39700a5
:103aa000060252000000fb0000075200e00f530026
:103ab000010032000e07e9006302660001003200d7
:103ac0000e07e900640266001d003200e202660093
:103ad00061026600e08f520006003200b002200052
:103ae000e00f5200010032000080e800afa897000c
:103af00004003700e00f52000e003200afa897001c
:103b000000022000b6fc0700e10f4000090032006f
:103b10008d06e80007003700afa8970000032000db
:103b2000affc0700e10f4000010032008d06e80005
:103b30000e07e900e00f5700f7ff3c0030003700a8
:103b4000680266000a003a0007003700afa8970035
:103b500000022000a2fc0700e10f4000010032003b
:103b60008d06e8000e07e900e00f5700f7ff3c0064
:103b7000e202660061026600e08f52000600320039
:103b8000b0022000e00f5200010032000080e80087
:103b9000afa8970016003700e00f5200180032005f
:103ba000afa8970000022000110037008502fb003b
:103bb000c32add0087992000858243005503be009b
:103bc0004502be000800be000a01be00a7050700ae
:103bd000a4002000050020006033b800aa050700fb
:103be0000403200000024200afa897000400780000
:103bf0007bfc0700e10f4000010032008d06e80069
:103c00002f7297008442e900a5779f00e04f520091
:103c1000e6ff3a0008003700afa897000003200035
:103c20006ffc0700e10f4000010032008d06e80044
:103c30000804e900b89f9f003f9c9700e00f5400e4
:103c4000f5ff3c000fb09700f20f50000300340066
:103c500024c1b300a4779f00020037008fe09700d3
:103c6000a1779f002f7297008402fb000fb197008d
:103c70008502510095af9f00e04f520006003200d0
:103c8000afa89700e002200055fc0700e10f4000bc
:103c9000010032008d06e8002f70970014fd070028
:103ca0000002be000203be004fa89700dfa89700e5
:103cb0006fa99700ffa99700190407009f03070049
:103cc000220037008502fb00c32add008399200013
:103cd000858241003500be002501be0080b79f00ef
:103ce00091b79f00a2b79f00b3b79f000203be0029
:103cf0000002be000800be000a01be005b0507000e
:103d0000a4002000050020006033b8005e05070015
:103d10000403200000024200afa8970004007800ce
:103d20002ffc0700e10f4000010032008d06e80083
:103d30000fb297009fb297002fb39700bfb39700c1
:103d40000800be000a01be004f0507000205be00c4
:103d50000004be002f7297008442e900a5779f00ff
:103d6000e04f5200d7ff3a000203be000002be003f
:103d70009fac97000f003700afa89700000320000a
:103d8000c4b79f00d5b79f00e6b79f00f7b79f0065
:103d900013fc07004fb29700dfb297006fb3970094
:103da000ffb39700e10f4000010032008d06e800ec
:103db0008904e900e08f5400efff3a0068066600ce
:103dc0006a013200e00f570068013400afa8970085
:103dd0000002200002fc0700e10f40000100320059
:103de0008d06e8000e07e900f8ff3a005f01370092
:103df0008c027800050cb2002b003a00e00f560050
:103e000005003d00bfa897004105be004104be006b
:103e1000b1af9f0017003700700266000f0032003c
:103e20003faa97004401be00b4af9f0082a79f0045
:103e300093a79f0084027800150290004fa2de0035
:103e4000a4a79f00b4a79f000fa497009fa497006a
:103e50002fa59700bfa5970006003700bfab9700be
:103e600047047800b7af9f00cfc4de000905780093
:103e70008a057800e00f5400e08f5c00e00f5d00e1
:103e8000e08f5d0023003d003c00b3006022b800dd
:103e90006033b8000804520089845a000a055b00a8
:103ea0008b855b001b003700e00f560005003d00ce
:103eb0003fa897004005be004004be00b0af9f0081
:103ec00014003700f00266000c003200bfaa970011
:103ed0004501be00b5af9f00c29f9f00d39f9f00ca
:103ee000e49f9f00f49f9f004f9c9700df9c9700ea
:103ef0006f9d9700ff9d970006003700bfab9700ae
:103f000047047800b7af9f00090020000a00200096
:103f10000b0020000fb09700e00f500009003a009e
:103f20001100200081b79f00e00f5400e08f5c007b
:103f3000e00f5d00e08f5d00020032000001eb0049
:103f400082b79f008c017800030cb200c3af9f00c2
:103f500004042000848f51002c00320003003c0038
:103f6000e08f5100080032003c00370004082000b8
:103f7000cfaa9700848f520010003200040c20005a
:103f8000848f520035003a00059a200014c0b30017
:103f90003500be003501be000040e10001c8e1006f
:103fa00002d0e10003d8e1002b0039000442e80010
:103fb000f44f5200f6ff3a002700370014c0b30058
:103fc00000012000010020006011b8000040e10065
:103fd00001c8e10002d0e10003d8e1001e00390071
:103fe000460020000000d0008180d2000281d20073
:103ff0008381d2000603e900faff3a000442e80098
:10400000f04f5200f1ff3a001300370014c0b30024
:1040100080002000010020006011b8000040e10095
:1040200001c8e10002d0e10003d8e1000a00390034
:10403000370020000000d0008180d2000281d20031
:104040008381d2008703e900faff3a000442e800c6
:10405000f54f5200f1ff3a00a4779f002f709700b0
:104060000002fb008fb09700810f520002003d005c
:10407000a1779f00040037000fb19700840f510013
:1040800001003d0084b79f009fa99700e08f510079
:104090000400320063026600020032008301e9007e
:1040a00093af9f0004002400040266000900320060
:1040b0001faa97008fb29700850f520003003400ab
:1040c0000502520094af9f00020037000003eb008e
:1040d00096af9f00af7397000702fb000007eb004d
:1040e0001fa89700840f50000100340004075000ff
:1040f000640266001c003200e20266006102660093
:10410000e08f520006003200b0022000e00f5200a3
:10411000010032000080e800afa8970004003700db
:10412000e00f520006003200afa897000002200006
:104130002bfb0700e10f4000010032008d06e80074
:10414000e00f570075003200afa897000003200071
:1041500023fb0700e10f4000010032008d06e8005c
:104160000e07e900f6ff3700e00f57000a003200a3
:104170006802660008003a00afa89700000220001d
:1041800017fb0700e10f4000010032008d06e80038
:104190000e07e900f8ff3a00e202660061026600dd
:1041a000e08f520006003200b0022000e00f520003
:1041b000010032000080e800afa89700040037003b
:1041c000e00f520055003200afa897000002200017
:1041d00003fb0700e10f4000500032008d06e800ad
:1041e0004e0037008fb097008100e90081b79f0033
:1041f0004fa9970003042000830f510030003200c4
:1042000003003c00e00f5100080032003b00370083
:1042100004082000cfaa9700848f520014003200b7
:10422000040c2000848f520034003a000fb3970032
:104230004332dd0087992000070242005403be008c
:104240004402be000800be000a01be0007040700c9
:10425000a4002000050020006033b8000a04070015
:104260000cc3b3000c464000ac779f00230037001e
:1042700094a420001fa89700e00f50000100320016
:1042800084a320008fb09700c20add000800be00a2
:104290000a01be008502e900050033008301d10058
:1042a0000281d3008180d3000080d300f9ff370062
:1042b0006f00600064407800a0779f000f00370017
:1042c0000fb197006312b9000800be000a01be00da
:1042d000040678000c06e900050033008301d100d4
:1042e0000281d3008180d3000080d300f9ff370022
:1042f000674260000443b000a4779f00af7097004e
:104300000100fb00afa89700b5fa0700e10f4000dd
:10431000060032008d06e800040037000c0178002a
:104320000202b20092af9f008cbf9f008fb1970036
:10433000e08f5100abff3a000fbe970068066600a1
:104340000a003200e00f570008003400afa89700c1
:1043500000022000a2fa0700e10f40000100320035
:104360008d06e8000e07e900f8ff3a004fa297001b
:1043700014407800a0779f00e04f5000ccfb3a003b
:104380000d0078004f0778004f06be004f05be00b5
:104390004f04be002f04b10000000600881f780003
:1043a0000004780038009000000278001420b20069
:1043b000e10f520005003a000002eb0014049800df
:1043c00028029000040c7800190037008002780061
:1043d0002520b2000000eb0024202000848f520032
:1043e00016003a00a8009000808f500013003200a1
:1043f00018019000800f510010003200480090001a
:104400005400070018029000840f5000030032008f
:10441000380290000403b300340498000002eb005b
:104420001404980028029000040c780038009000d2
:104430000002b200010032000080eb004f0478005f
:10444000000006000200fa00889fbe00a0ff9f0047
:104450000104780038029000840278000504b2005c
:10446000020032000000fb0035003700e20262006b
:1044700005003a000403b3003404980015049800c2
:104480000080eb002e003700d8049000e08f54002d
:1044900006003a0012002000e68057004800900015
:1044a0002c0007001904980023003700a802900090
:1044b000e08f520008003a00b5a8200025049800bb
:1044c000050c78002500200055049800150498007c
:1044d0000430a0003404980018019000a800900057
:1044e000480090001b000700280290008082eb002b
:1044f00015049800affa9700054a7800040ce8000c
:104500002ffa9700ea4f52000b003a003802900051
:104510000410b2000800320018019000a8009000ba
:10452000480090000b0007000002eb001404980004
:10453000a8029000050c78002ffa97000400fb00f9
:104540004f04be000080fa000000060000c0da0040
:10455000000006000a00fa00e20f500022003e00b0
:1045600074548000e10f52000600320087232000bf
:10457000462320002423200005232000e08f530041
:1045800004003a0087222000462220002422200036
:1045900005222000000028001500600003003a00fa
:1045a000800b780007002800958a730005402000e2
:1045b0009482620001003a0014a0a00082027800f8
:1045c00006003700940378000710b200fdff3200a8
:1045d000b103fb00070b78008502e900e08f520071
:1045e000f8ff3a000800370034002000b4bf9f00f5
:1045f000c0bf9f00d1bf9f00e2bf9f006a805700ed
:10460000d2ff07006fb99700020078000080fa001f
:10461000000006002800fa00889fbe008a9fbe00a6
:104620008c9fbe0007067800878669000c003b005f
:10463000030478008704780008f0a10009f0a100c5
:10464000840f5000858f5800860f5900890f5c0039
:10465000030033000cf0a20001003a000cf0a100ae
:10466000fe0007006400e1005f00320078014700af
:104670006408e100610032006c0147007485570056
:104680003200be001201be003a04be001a05be0090
:104690001e039000be0a90008503530006003d00f3
:1046a0000004fd008104fd000205fd008305fd00fe
:1046b0008703ea00050378000df8a3000400320028
:1046c00060041400e0841c0060051d00e0851d00ee
:1046d0006022b8007d0320000d38e1008006eb0069
:1046e0000b0039004433dd00f300b2008301730096
:1046f00039003700848272000d027800e106640000
:104700008b85d1000a85d3008984d3000884d30027
:104710008703e900f7ff3b0008004000898048005c
:104720000a0149008b81490004003b006000100031
:10473000e080180060011900e08119000358a3000f
:10474000090032008d827200848272006102600072
:104750008301d1000281d3008180d3000080d30087
:104760000603e8001b0037000348a30017003a00c7
:104770000600e000170034000603e9000d00a30066
:1047800000004800818048000201490083814900ff
:104790000348a3000f003a000600e00009003400bf
:1047a0000603e90000004000818048000201490042
:1047b0008381490001003a000003eb000348a30095
:1047c000f5ff32006022b8000200370084827200d8
:1047d000618266007500070003f0a1000cf0a700dd
:1047e00003f0a000b1003700640147006408e10055
:1047f00002003a000df8a300a9003a003200be0002
:104800001201be00a90037008f1fd100000307006e
:104810008f87e9000000e00000000600809feb00a9
:10482000fb0207008f87e9000000e000000006009f
:104830002800fa00889fbe008a9fbe008c9fbe00a1
:1048400003866b00850007006400e100440032002d
:104850006408e1004a0032006100e10046003200d5
:104860006108e10049003200ec0647006000b80032
:104870003d02be003d03be00f48657006011b80043
:104880003d04be003d05be007d0320000b00370047
:104890000000a0008d06e90013003200040242006f
:1048a00085824a0006034b0087834b0000004000ce
:1048b00081804800020149008381490008025200ba
:1048c00089825a000a035b008b835b00f0ff3b0088
:1048d0000802420089824a000a034b008b834b0086
:1048e0008d06e900edff3a00848272008682720034
:1048f000f707b20087827200010032001500200025
:104900001e0490003e0b900006035400e63fb000ea
:104910000368a300070032000000a7000500a00004
:104920008301d1000281d3008180d3000080d300b5
:104930000603e8008301d1000281d3008180d30007
:104940000080d3000002eb000482d20017000700b1
:1049500003f0a1000cf0a70003f0a0005300370003
:10496000640247006408e1004d0032003400be00dc
:104970003401be00f6ff37006108e1004800320054
:104980006011b8006000b800f1ff370003ff270096
:1049900002002000fbff3700801feb009c02070095
:1049a0008f87e9000000e0000000060018002000ea
:1049b00057002000080453000d003d0006002000b1
:1049c00097fc2f000740e1001e0034008482720033
:1049d000610260008301d1000281d3008180d30095
:1049e0000080d3000804e800f8ff3a0047002000e8
:1049f0006104600005047400040464000d003200ca
:104a000061004000e080480060014900e081490009
:104a100003b8a500070032000603e8006538e1008e
:104a200004003a008301d1000281d3008180d300c9
:104a30000080d300f87f20000830e100030035003b
:104a4000080378006000b8006011b8004433dd004e
:104a5000f300b20083017300000006006804470001
:104a60000294be000094be00fc0447008694be0081
:104a70008494be0009007800ae02070008007800a8
:104a8000ac02070099007800814f70000b003b00da
:104a90000800be00870207004f00b1000300370086
:104aa000f3ff2700f2ff2f006110b9004f06be0090
:104ab0004f05be004f04be000080fa000000060053
:104ac00081037800b0f507000001be006000b80067
:104ad0000478a30013003a006220e10015003e00b4
:104ae0000d0039008301d1000281d3008180d30001
:104af0008301d1000281d3008180d3008301d100e2
:104b00000281d3008180d3000538b000c42add00c3
:104b1000f300b2008381720007f0a70003f0a00049
:104b200000000600f3ff2700f2ff2f006110b9001c
:104b3000fbff370003ff2700f7ff37001400fa00e0
:104b4000889fbe008a9fbe008c9fbe000004be00ee
:104b50000205be00680047000a90be000890be0033
:104b6000740207000070a7000bf0a1000bf8a3006f
:104b700020003a009e0990000e099000fe0090006f
:104b80006e0090009e029000344320008482520008
:104b9000c6ff32000a003c00b4fc2f000428e100ec
:104ba000140034008301d1000281d3008180d3003e
:104bb0000080d3008502e800faff3a00bbff37000f
:104bc000b40020000428e10007003c000000400081
:104bd0008180480002014900838149008502e90083
:104be000faff3a00b1ff370003002800020020005e
:104bf000010037006011b8006000b800abff37005b
:104c0000889fbe000082700004027100048271005f
:104c10002400320036432000c50020008383cf00eb
:104c20000a0039000541b1008283cf000700390036
:104c30000541b1008183cf00040039000541b10076
:104c40008083cf00010039000541b10085c35300c6
:104c50006022b800120032000a003b008482720019
:104c6000610260008301d1000281d3008180d30002
:104c70000080d3000603e8008743e800f7ff3a000e
:104c80000700370000004000818048000201490011
:104c9000838149000603e9008743e900f9ff3a00f0
:104ca00042ff07004f04be00000006001400fa0097
:104cb000889fbe008a9fbe008c9fbe0004067800bd
:104cc0000004be000205be00680047000a90be0056
:104cd0000890be00170207006200e1000800be0055
:104ce0000a01be00040020000b003a001e029000e2
:104cf000e43fb1006e009000fe0090000e099000ad
:104d00009e099000f300b20005fe2300858171002a
:104d10000bf0a70003f0a000040e780063ff37003b
:104d20002800fa00889fbe008a9fbe008c9fbe00ac
:104d300003866b0049ff07000028a30064003a00c7
:104d40000128a30067003a000008a30062003a00af
:104d50000108a30065003a001e009000be08900004
:104d600081064000ed3fb100f4805700ee01900055
:104d7000111ab8008e099000311bb8009e099000ee
:104d8000311cb800511db800f485570046000700db
:104d9000fe0190003a0007008b85e8003e00070006
:104da0008e09900040000700ee01900034000700db
:104db0008b85e800380007008e099000400007004e
:104dc0009e0990001b18b800890440000a8548001d
:104dd000fe019000340007008b85e80038000700d2
:104de000ee019000300007008e0990001b18b800fb
:104df000890440000a8548000a98a30008003a0088
:104e00000402420085824a0006034b0087834b0060
:104e100008044c0089844c000a054d008d06e90009
:104e200084827200850273004c3add0085027200b4
:104e30000100320015002000443ade001400b200e8
:104e40004538de00cb45dd000b007000c540de00bc
:104e5000cb4ddd008b8070004549de00cb55dd0079
:104e60000b017100c551de000d037800cffe070075
:104e700003f0a1000cf0a70003f0a0000bff370027
:104e80001b18b8008502400006834800e0834b00f1
:104e900060044c00070037001b18b80006034000f0
:104ea00087834800faff37001b18b80087034000cb
:104eb00008844800e0844c0060054d0000000600b6
:104ec0001b18b8000804400089844800faff370026
:104ed0000108a300f2fe3a005800be005801be00cf
:104ee000e3ff37000008a300edfe3a000904780054
:104ef000f9ff370007f0a200c6fd37001400fa00e2
:104f0000889fbe008a9fbe008c9fbe000005be0029
:104f10000206be00680047000c90be000a90be006a
:104f2000840107006400e1001a00320016003e0010
:104f30006100e1001a0032006e049000fe0490004f
:104f40000e0b90009e0b90006011b8009e05900023
:104f50000b38b100d501200082817100610164002d
:104f60008703d1000683d3008984d3000884d3004b
:104f70008502e900f8ff3a005df407000df0a70094
:104f800001f0a000c9fe3700f1ff2700f0ff2f005d
:104f9000c6fe370001f8270000002000f7ff3700a9
:104fa0006000b800f5ff3700020ab900001bb90025
:104fb0000200b800810042008100430000000600aa
:104fc000889fbe008a9fbe003004be002005be0040
:104fd0000404440085844c0006054d0087854d007f
:104fe0000898be000a90be000440e10005c8e10038
:104ff00006d0e10007d8e10002003100680040005f
:105000001008e8004f05be004f04be000000060077
:105010001000fa00889fbe008a9fbe000605be00f1
:105020000404be003002be002003be00c4b79f00cf
:10503000d5b79f00e6b79f00f7b79f000802520060
:1050400089825a000a035b008b835b0084bf9f0048
:1050500095bf9f00a6bf9f00b7bf9f000498be00ea
:105060000698be00110020004fb29700dfb29700f3
:105070006fb39700ffb397000820e10009a8e10093
:105080000ab0e1000bb8e100010039008000eb003c
:10509000108810004f05be004f04be000080fa00cb
:1050a000000006001400fa00889fbe008a9fbe0020
:1050b0008c9fbe003f0007000605be000404be0032
:1050c0000006eb00ccb79f00bcb79f00acb79f00b9
:1050d0009cb79f008cb79f000d0420004fb3970032
:1050e000bfb29700860343002fb29700e00f530032
:1050f00004003d003d0007000f004000b0ff070026
:1051000003003700390007000f004000c0ff070010
:10511000cfb2970095bf9f00e08f52000900350085
:105120002b00070014002000050020006033b800a9
:10513000000072008180720002017300838173009d
:105140001c0007000c06e8008d0f5600e3ff3a0034
:105150001fba9700e00f520005003d000802be0094
:105160000a03be0000fe2f000f00400094ff07005e
:105170004faa9700e00f520008003a000fb49700c2
:105180009fb497002fb59700bfb59700d8b79f0081
:10519000e9b79f00fab79f008bbf9f000c00070084
:1051a0004f06be004f05be004f04be000080fa004f
:1051b00000000600010007000000060090b79f00f5
:1051c000a1b79f00b2b79f00c3b79f0000000600c1
:1051d00001000700000006001fb09700afb0970065
:1051e0003fb19700cfb19700000006004f2bde00c3
:1051f00087037300a7b79f004f23de00858242001c
:105200008502730095b79f00ffaa97004f2bde0021
:10521000040242000402730084b79f006faa970043
:105220004f23de008582420085027300f5af9f00a8
:10523000e9ff07004f18de0004024200000272007e
:10524000e4af9f00e4ff07000000400081804800b9
:105250000201490083814900d8ff07000802be000f
:105260000a03be0000fe2f0000000600881f780021
:1052700018002000881f78008aff07008f87e90048
:105280004f04780000000600801feb0085ff070038
:105290008f87e90000000600889fbe008a9fbe003d
:1052a000e00f5000e08f5800e00f5900e08f5900e8
:1052b0000c003d006044b8006055b8000000540088
:1052c00081805c0002015d0083815d001800200088
:1052d0001500070008003d00180007000004eb005f
:1052e000050037000004eb000f00070002003d003e
:1052f0001200070018002000dcff0700e00f540038
:10530000060032006022b8006033b800000052008e
:1053100081805a0002015b0083815b004f05be0063
:105320004f04be0000000600e00f5200e08f5a005c
:10533000e00f5b00e08f5b00000006006044b800f7
:105340006055b8000402540085825c0006035d00cd
:1053500087835d0000000600889fbe008a9fbe0014
:105360008c1f7800e00f5000e08f5800e00f5900cc
:10537000e08f59000d003d006044b8006055b80052
:105380000000540081805c0002015d0083815d00ab
:105390001c0020000820e10009a8e1000ab0e1009b
:1053a0000bb8e1000d003d00080037000006eb00df
:1053b000e00f5200e08f5a00e00f5b00e08f5b00cf
:1053c00006003d006044b8006055b8000402540077
:1053d00085825c0006035d0087835d00aaff0700ed
:1053e000e00f5600060032006022b8006033b800bb
:1053f0000000520081805a0002015b0083815b0043
:105400004f0678004f05be004f04be0000000600a6
:10541000889fbe008a9fbe008c9fbe000404be0011
:105420000605be00809fbe00829fbe002f000700c1
:10543000040678000800be000a01be002b00070029
:10544000840678004f03be004f02be008d4f7600e9
:105450007fb0970013003300f0ff2f008b8f6b009d
:1054600006003b000d0666000c00a7000a0037008e
:1054700007f0a600100020000a003700880f520035
:10548000898f5a008a0f5b008b8f5b000300390005
:105490001000200001003e000000200007f0a700df
:1054a0000000ea004f06be004f05be004f04be00dc
:1054b00000000600e48240001078a30007003200dc
:1054c000640240001178a3003400be001401be0045
:1054d000040032000330a700000006003500be00c3
:1054e0001501be000330a0000000060005ff2700e4
:1054f00005826100070032000428e100010032004b
:10550000240005000600070001003a0044000500e1
:105510000408050002000700f9ff3a001400050026
:105520006f82610081027000850271008502720045
:1055300000000600800078005002be005003be004c
:105540004439de00f700b200f37f20000301610060
:10555000090032000218e10016003a0085017200cd
:1055600083017300838173000008200015003a0056
:105570004000200013003700850172008301730092
:105580008381730005003a0004a8be0006a8be008f
:10559000100020000b0037000201e9000402420065
:1055a00085824a0006034b0087834b000748a3000f
:1055b000f9ff32000740a00004a8be0006a8be0004
:1055c0002000200080009800920098000000060053
:020000040000fa
:1055d000556e0000686100006e6400006c6500009c
:1055e00064200000696e00007465000072720000a3
:1055f00075700000742c000020000000504900006d
:1056000043320000344800004a36000034470000ae
:105610005035000030360000007500006e6b000051
:105620006e6f0000776e0000004100003300000044
:1056300041340000004100003500000044650000d6
:1056400076690000636500002049000044200000e6
:105650003d2000000020000028000000292c000050
:10566000207200006576000069730000696f000019
:105670006e200000002900000a0000000a0a000055
:105680002a2a00002a2a00002a2a00002a2a0000ca
:105690002a2a00002a2a00002a2a00002a2a0000ba
:1056a0002a2a00002a2a00002a2a00002a2a0000aa
:1056b0002a2a00002a2a00002a2a00002a2a00009a
:1056c0002a2a00002a2a00002a2a00002a2a00008a
:1056d0002a2a00002a2a00002a2a00002a2a00007a
:1056e0002a2a00002a2a00002a2a00000a2a00008a
:1056f00020570000415200004e4900004e47000074
:10570000202d000020740000686900007320000054
:10571000707200006f670000726100006d20000071
:105720007761000073200000636f00006d7000005f
:10573000696c000065640000206600006f72000064
:10574000207400006865000020770000726f000080
:105750006e670000202000002a0a00002a200000b6
:1057600063680000697000002e200000546800008b
:105770006973000020700000726f00006772000003
:10578000616d0000206d0000617900002070000054
:10579000726f0000647500006365000020750000f2
:1057a0006e6500007870000065630000746500009d
:1057b000642000006265000068760000696f0000e8
:1057c00072210000202a00000a2a00002045000063
:1057d0006469000074200000746800006520000007
:1057e00068650000616400006572000020660000ca
:1057f000696c000065730000207400006f200000d9
:10580000707200006f700000657200006c7900001b
:105810002064000065660000696e000065200000dd
:10582000746800006973000020630000686900006c
:10583000702000002a0a00002a200000616e00008b
:1058400064200000746f0000206900006e73000087
:105850007572000065200000636f00007272000026
:1058600065630000742000006f7000006572000026
:1058700061740000696f00006e2e0000202000009f
:105880002020000020200000202000002020000018
:105890002020000020200000202000002020000008
:1058a000202a00000a2a00002020000020200000fa
:1058b00020200000202000002020000020200000e8
:1058c00020200000202000002020000020200000d8
:1058d00020200000202000002020000020200000c8
:1058e00020200000202000002020000020200000b8
:1058f00020200000202000002020000020200000a8
:105900002020000020200000202000002020000097
:105910002a0a00002a2000004e4f000054450000d3
:105920003a20000049660000207400006869000009
:10593000732000007761000073200000636f000097
:105940006d700000696c0000656400002066000056
:105950006f72000020740000686500002063000082
:105960006f72000072650000637400002063000025
:1059700068690000702c000020200000202a000030
:105980000a2a0000206100006e640000206f000001
:105990006e6c0000792000006f63000063750000ea
:1059a000727300002061000074200000706f00001e
:1059b00077650000722d00006f6e00002028000047
:1059c0006e6f0000742000006475000072690000b2
:1059d0006e67000020610000204d0000434c000075
:1059e0005220000020200000202000002a0a000091
:1059f0002a20000072650000736500007429000011
:105a00002c200000766500007269000066790000b5
:105a100020740000686100007420000041560000fe
:105a200044440000206100006e640000204100003a
:105a300056530000532000006172000065200000f2
:105a4000636f00006e6e0000656300007465000007
:105a5000642e000020200000202a00000a2a0000f6
:105a6000204f00006e2000007468000065200000d8
:105a70005049000043320000344800003332000037
:105a80004750000032300000322c0000206e000031
:105a90006f740000206300006f6e00006e650000f0
:105aa00063740000696e000067200000415600002a
:105ab000444400002020000020200000202000009e
:105ac00020200000202000002a0a00002a200000d8
:105ad000707200006f640000756300006573000061
:105ae0002074000068690000732000006d650000ec
:105af0007373000061670000652000006f6e000096
:105b00006c7900002061000074200000706f0000bc
:105b100077650000722d0000757000002e200000d7
:105b20002020000020200000202000002020000075
:105b300020200000202a00000a2a00002a2a000053
:105b40002a2a00002a2a00002a2a00002a2a000005
:105b50002a2a00002a2a00002a2a00002a2a0000f5
:105b60002a2a00002a2a00002a2a00002a2a0000e5
:105b70002a2a00002a2a00002a2a00002a2a0000d5
:105b80002a2a00002a2a00002a2a00002a2a0000c5
:105b90002a2a00002a2a00002a2a00002a2a0000b5
:105ba0002a2a00002a0a0000004600006173000053
:105bb0007420000052430000204f00007363000077
:105bc0000a000000466100007374000020520000cb
:105bd000432000004f73000063200000776900003d
:105be00074680000205000004c4c00000a000000c7
:105bf00050720000696d00006172000079200000a1
:105c00004f7300006320000028580000542c00004f
:105c100020480000532c00002045000043290000cc
:105c20000a00000050720000696d000061720000ff
:105c3000792000004f730000632000002858000006
:105c4000542c000020480000532c00002045000088
:105c500043290000207700006974000068200000dc
:105c6000504c00004c0a0000005300006563000027
:105c70006f6e00006461000072790000204f000028
:105c8000736300000a0000004c6f000077200000e2
:105c9000506f000077650000722000005243000042
:105ca000204f0000736300000a00000046610000fe
:105cb0007374000020520000432000004f73000066
:105cc000632f0000313600000a000000466100002a
:105cd0007374000020520000432000004f73000046
:105ce000632f00004e0a0000005500006e6b00009c
:105cf0006e6f0000776e0000206f0000736300007d
:105d0000696c00006c610000746f0000722000007c
:105d100074790000706500002e0000000a44000045
:105d2000657600006963000065200000686100007e
:105d30007320000062650000656e000020690000ad
:105d40006e200000736c000065650000702000008c
:105d50006d6f0000646500000a0000000a44000046
:105d6000657600006963000065200000686100003e
:105d70007320000062650000656e0000206900006d
:105d80006e200000696400006c650000206d00005a
:105d90006f640000650a0000000a00005265000000
:105da00073650000742000006361000075730000db
:105db000653a000020000000506f00007765000089
:105dc000722d00006f6e00002e0a000000530000cc
:105dd0006f660000747700006172000065200000ab
:105de0005265000073650000742e00000a00000078
:105df0005761000074630000686400006f67000072
:105e000020540000696d0000656f0000757400008b
:105e10003a200000000a0000004d0000434c000042
:105e2000522000006173000073650000727400006e
:105e3000696f00006e2e00000a0000004272000030
:105e40006f7700006e2d00006f750000742e00004b
:105e50000a0000005472000061700000204300003e
:105e60006f6e0000666c000069630000742e000015
:105e70000a000000496c00006c65000067610000ca
:105e80006c200000436f00006e6400006974000025
:105e9000696f00006e2e00000a000000556e0000c1
:105ea0006b6e00006f7700006e20000072650000ce
:105eb00073650000742e00000a00000045720000a7
:105ec000726f0000722000007472000061700000a8
:105ed00070650000643a000020000000507200006d
:105ee000696f000072690000747900003a200000b8
:105ef000002c00002056000065630000746f000055
:105f0000722000006e7500006d6200006572000076
:105f10003a200000000a00000a000000457200005c
:105f2000726f000072200000696e0000202e0000d9
:105f30002e2f00002e2e00002f6c00006962000042
:105f40002f730000726300002f700000696300006f
:105f5000323400005f750000746900006c2e000090
:105f6000632000006c6900006e65000020340000b2
:105f7000363900003a20000041530000534500002c
:105f80005254000028750000313600005f620000a6
:105f900072670000682000003c3d000020310000d6
:105fa0002920000066610000696c00006564000043
:105fb0002e0a000000450000727200006f7200009f
:105fc000206900006e2000002e2e00002f2e000001
:105fd0002e2f00006c690000622f00007372000019
:105fe000632f00007069000063320000345f00001e
:105ff00075740000696c00002e630000206c0000c6
:10600000696e00006520000034370000353a00005a
:106010002041000053530000455200005428000066
:10602000665f000062720000672000003c200000f4
:106030003635000035330000352e000035290000cc
:1060400020660000616900006c650000642e00009d
:106050000a000000554100005254000031200000a9
:106060007061000072690000747900002065000012
:10607000727200006f7200000a00000055410000bb
:10608000525400003120000066720000616d000073
:10609000696e00006720000065720000726f0000ea
:1060a000720a000000550000415200005431000007
:1060b000206f00007665000072720000756e0000af
:1060c00020650000727200006f7200000a0000007c
:1060d00045720000726f000072200000696e0000bf
:1060e000202e00002e2f00002e2e00002f6c00000e
:1060f000696200002f730000726300002f700000bf
:1061000069630000323400005f75000061720000b6
:10611000742e0000632000006c6900006e650000b2
:1061200020330000353200003a20000041530000c7
:10613000534500005254000028750000333200001f
:106140005f6200006175000064520000617400002d
:10615000652000003e3d000020310000303000008e
:10616000304c00002920000066610000696c0000ce
:10617000656400002e0a0000005500004152000036
:106180005432000020700000617200006974000049
:106190007920000065720000726f0000720a000032
:1061a00000550000415200005432000020660000fb
:1061b000726100006d6900006e67000020650000dc
:1061c000727200006f7200000a000000554100006a
:1061d00052540000322000006f760000657200000b
:1061e000727500006e20000065720000726f000082
:1061f000720a000000450000727200006f72000019
:10620000206900006e2000002e2e00002f2e0000be
:106210002e2f00006c690000622f000073720000d6
:10622000632f00007069000063320000345f0000db
:1062300075610000727400002e630000206c000085
:10624000696e00006520000037330000373a000017
:106250002041000053530000455200005428000024
:1062600075330000325f0000626100007564000059
:106270005261000074650000203e00003d200000d7
:1062800031300000303000004c2900002066000052
:10629000616900006c650000642e00000a000000c7
:1062a00045720000726f000072200000696e0000ed
:1062b000202e00002e2f00002e2e00002f6c00003c
:1062c000696200002f730000726300002f700000ed
:1062d00069630000323400005f73000065720000e3
:1062e000696100006c2e0000632000006c690000f2
:1062f0006e65000020380000303a000020490000a0
:106300006e760000616c000069640000205500009a
:1063100041520000540000003078000000450000a9
:10632000727200006f720000206900006e20000091
:106330002e2e00002f2e00002e2f00006c69000072
:10634000622f000073720000632f0000706900006c
:1063500063320000345f0000736500007269000062
:10636000616c00002e630000206c0000696e00006c
:106370006520000032390000353a00002049000055
:106380006e760000616c000069640000205500001a
:10639000415200005400000045720000726f00007e
:1063a00072200000696e0000202e00002e2f0000d9
:1063b0002e2e00002f6c0000696200002f73000079
:1063c000726300002f700000696300003234000027
:1063d0005f73000065720000696100006c2e0000b0
:1063e000632000006c6900006e650000203300002f
:1063f000333400003a200000496e0000766100004e
:106400006c690000642000005541000052540000f7
:1064100000050000030200000100000050c300005e
:1064200030750000204e0000102700008813000087
:10643000b80b0000d0070000e8030000f4010000e2
:106440002c010000c80000006400000032000000c1
:106450001e000000140000000a00000005000000fb
:10646000030000000200000001000000050300001e
:10647000020100000503000002010000321e0000be
:10648000140a00000503000002010000457200002c
:10649000726f000072200000696e0000202e000064
:1064a0002e2f00002e2e00002f6c000069620000cd
:1064b0002f730000726300002f70000069630000fa
:1064c000323400005f740000696d000065720000e6
:1064d0002e630000206c0000696e00006520000043
:1064e000353800003a2000004153000053450000b9
:1064f00052540000286600005f74000069630000c9
:106500006b730000203c0000203600003535000091
:10651000333500002e3500002920000066610000a0
:10652000696c0000656400002e0a00000045000050
:10653000727200006f720000206900006e2000007f
:106540002e2e00002f2e00002e2f00006c69000060
:10655000622f000073720000632f0000706900005a
:1065600063320000345f0000746900006d65000054
:10657000722e0000632000006c6900006e65000050
:1065800020370000363a000020410000535300003d
:106590004552000054280000665f00007469000046
:1065a000636b0000732000003c20000036350000c3
:1065b00035330000352e000035290000206600002c
:1065c000616900006c650000642e00000a00000094
:1065d00045720000726f000072200000696e0000ba
:1065e000202e00002e2f00002e2e00002f6c000009
:1065f000696200002f730000726300002f700000ba
:1066000069630000323400005f740000696d0000af
:10661000657200002e630000206c0000696e0000af
:106620006520000031360000303a000020410000b3
:1066300053530000455200005428000075380000f4
:106640005f540000434b000050530000203c00000a
:106650003d20000033290000206600006169000031
:106660006c650000642e00000a0000000a0a0000a9
:10667000596f000075720000206300006c6f00000d
:10668000636b000020630000686f00006963000016
:106690006520000066610000696c00006564000010
:1066a000207400006f200000696e00006974000013
:1066b000696100006c6900007a6500002e2000000e
:1066c00053650000652000002e2e00002f2e0000d4
:1066d0002e2f00006c690000622f00007372000012
:1066e000632f00007069000063320000345f000017
:1066f000636c00006f6300006b6600007265000051
:10670000712e0000632000006c6900006e650000bf
:106710002031000034360000206600006f72000057
:10672000206d00006f7200006520000064650000ad
:1067300074610000696c0000732e000000450000c9
:10674000727200006f720000206900006e2000006d
:106750002e2e00002f2e00002e2f00006c6900004e
:10676000622f000073720000632f00007069000048
:1067700063320000345f0000636c00006f63000050
:106780006b66000072650000712e0000632000003f
:106790006c6900006e650000203100003732000097
:1067a0003a200000415300005345000052540000bd
:1067b00028750000385f0000736f000075720000dc
:1067c00063650000203c0000203800002920000004
:1067d00066610000696c0000656400002e0a00001c
:1067e00000000000436800006f6f00007365000048
:1067f00020640000697200002028000031200000a1
:106800002d200000666f0000727700002c20000031
:10681000322000002d20000062610000636b000048
:106820002c200000332000002d2000007374000095
:106830006f700000293a000020000000256400006d
:10684000004900006e760000616c00006964000081
:106850002073000065720000766f00002e2e00008d
:10686000004500006e74000065720000207000009a
:10687000756c0000736500002077000069640000fb
:10688000746800003a200000000a0000204f000059
:106890004332000052530000203d0000202500003c
:1068a000752c0000204f00004333000052530000bd
:1068b000203d000020250000752000002c20000055
:1068c000505700004d5f000050450000522000006e
:1068d0003d20000025750000200a00000025000072
:1068e000752000003d20000025750000202a0000d2
:1068f0002064000075740000792000000a00000088
:106900006c6900006e6500003a20000025660000fa
:10691000206c000065660000743a0000202500002d
:10692000662000007269000067680000743a000089
:1069300020250000662000000a0000000a2e00004a
:106940002e2f00006c6900006e650000466f00008d
:106950006c6c00006f770000657200002e63000011
:106960002c20000062750000696c0000742000009b
:106970006f6e0000205300006570000020310000a1
:106980003820000032300000313400002061000067
:1069900074200000313400003a340000363a000020
:1069a000333900000a0000000a4d00006164000055
:1069b0006520000069740000207000006173000011
:1069c000742000006d6f0000746f0000727300008f
:1069d0005f6900006e690000742800002920000033
:1069e00000000000493200004350000055540000f0
:1069f000312c0000204e0000414b000020720000ae
:106a000065740000757200006e650000642e000061
:106a1000004900003243000050550000543200008d
:106a20002c2000004e4100004b2000007265000049
:106a300074750000726e0000656400002e00000096
:0c6a400020250000752000000900000067
:020000040000fa
:106a4c00000178000300200000c429000100200090
:106a5c0071ed070065025000f51f2000850f5200f4
:106a6c0001003600050278002410880007e2a80017
:106a7c0000000600053a8000c52ade00e1c2620073
:106a8c0040a7a8000602a8000602ab00feff3a00d1
:106a9c00e1826200c52add00f4fd2f00063a800079
:106aac000602620005027200043a88003028ef00ea
:106abc0000000600053a8000c52ade00e1c2620033
:106acc0040a7a8000622a8000622ab00feff3a0051
:106adc00e1826200c52add00f4fd2f00063a800039
:106aec000602620005027200043a88003028ef00aa
:106afc0000000600053a8000c52ade00e1c26200f3
:106b0c0040a7a8000642a8000642ab00feff3a00d0
:106b1c00e1826200c52add00f4fd2f00063a8000f8
:106b2c000602620005027200043a88003028ef0069
:106b3c0000000600063a80004533de006143630026
:106b4c0040a7a8000080fb0010108800050024005e
:106b5c004710800007826200e00f5200fcff3a00f1
:106b6c00e1026300c52add00f4fd2f00063a800027
:106b7c000602620005027200043a88003028ef0019
:106b8c00040028004710800007026200e00f52004a
:106b9c0002003200204f2b00da0107000000060033
:106bac00063a80004533de006143630040a7a8002d
:106bbc000080fb00101088000500240047108000a6
:106bcc0007826200e00f5200fcff3a00e102630012
:106bdc00c52add00f4fd2f00063a80000602620093
:106bec0005027200043a88003028ef004010800043
:106bfc004f00de000000060000437800053a8000dc
:106c0c00c52ade00e1c2620040a7a8003410800053
:106c1c007f026200fdff3a000662a8000822ab006a
:106c2c00feff32000060fe00001080003410800077
:106c3c007f026200fdff3a00610363004533dd0013
:106c4c00f4fd2f003710800007026200060272006c
:106c5c00341088000682a8000682ab00feff3a00c2
:106c6c00e1826200c52add00f4fd2f00063a8000a7
:106c7c000602620005027200043a88003028ef0018
:106c8c0000000600889fbe00004478008144780014
:106c9c0078ff0700084078000004a100a5ff07005a
:106cac0009407800a3ff070092ff07004f04be00c5
:106cbc0000000600889fbe008a1f78000044780000
:106ccc0081447800024578006aff0700084078008c
:106cdc000004a10097ff07000940780095ff07000a
:106cec000a40780093ff070082ff07004f057800e9
:106cfc004f04be0000000600889fbe008a1f78006b
:106d0c0000447800810478000205780059ff0700e0
:106d1c00084078000004a10086ff0700e00f550032
:106d2c00060032000004eb003940780081ff0700b8
:106d3c000804e800880f5500fbff3e006dff0700bc
:106d4c004f0578004f04be0000000600889fbe006f
:106d5c00004478008104780046ff07000840780062
:106d6c000004a00073ff070010c0b300a2ff0700cf
:106d7c00804c78005fff07004f04be000000060047
:106d8c00889fbe008a1f7800004478008104780038
:106d9c000205780037ff0700084078000004a000c7
:106dac0064ff07000040eb0093ff0700804c780065
:106dbc0010c0b30090ff0700004d78004dff070096
:106dcc004f0578004f04be0000000600889fbe00ef
:106ddc008a9fbe008c1f78000044780081047800e4
:106dec000205780023ff0700084078000004a0008b
:106dfc0050ff0700e00f5500110032000004eb00bb
:106e0c008a05e9001cc0b300888f550004003200cd
:106e1c000040eb0078ff0700804c7800030037003f
:106e2c000c40780074ff0700804c78000804e800e0
:106e3c00880f5500020036008904e800f2ff370085
:106e4c002cff07004f0678004f05be004f04be0014
:106e5c0000000600000178000300200000c4290097
:106e6c00010020006cec070065025000f51f2000ab
:106e7c00850f52000100360005027800a41088002e
:106e8c0017e2a80000000600053a8000c52ade00c3
:106e9c00e1c2620040a7a8001602a8001602ab00cf
:106eac00feff3a00e1826200c52add00f4fd2f00ee
