:020000040000fa
:08000000000e040000000000e6
:020000040000fa
:10000800020c0000060c00000a0c00000e0c000098
:10001800120c0000160c00001a0c00001e0c000048
:10002800220c0000260c00002a0c00002e0c0000f8
:10003800320c0000360c00003a0c00003e0c0000a8
:10004800420c0000460c00004a0c00004e0c000058
:10005800520c0000560c00005a0c00005e0c000008
:10006800620c0000660c00006a0c00006e0c0000b8
:10007800720c0000760c00007a0c00007e0c000068
:10008800820c0000860c00008a0c00008e0c000018
:10009800920c0000960c00009a0c00009e0c0000c8
:1000a800a20c0000a60c0000aa0c0000ae0c000078
:1000b800b20c0000b60c0000ba0c0000be0c000028
:1000c800c20c0000c60c0000ca0c0000ce0c0000d8
:1000d800d20c0000d60c0000da0c0000de0c000088
:1000e800e20c0000e60c0000ea0c0000ee0c000038
:1000f800f20c0000f60c0000fa0c0000fe0c0000e8
:10010800020d0000060d00000a0d00000e0d000093
:10011800120d0000160d00001a0d00001e0d000043
:10012800220d0000260d00002a0d00002e0d0000f3
:10013800320d0000360d00003a0d00003e0d0000a3
:10014800420d0000460d00004a0d00004e0d000053
:10015800520d0000560d00005a0d00005e0d000003
:10016800620d0000660d00006a0d00006e0d0000b3
:10017800720d0000760d00007a0d00007e0d000063
:10018800820d0000860d00008a0d00008e0d000013
:10019800920d0000960d00009a0d00009e0d0000c3
:1001a800a20d0000a60d0000aa0d0000ae0d000073
:1001b800b20d0000b60d0000ba0d0000be0d000023
:1001c800c20d0000c60d0000ca0d0000ce0d0000d3
:1001d800d20d0000d60d0000da0d0000de0d000083
:1001e800e20d0000e60d0000ea0d0000ee0d000033
:0801f800f20d0000f60d0000fd
:020000040000fa
:10020800020c0000060c00000a0c00000e0c000096
:10021800120c0000160c00001a0c00001e0c000046
:10022800220c0000260c00002a0c00002e0c0000f6
:10023800320c0000360c00003a0c00003e0c0000a6
:10024800420c0000460c00004a0c00004e0c000056
:10025800520c0000560c00005a0c00005e0c000006
:10026800620c0000660c00006a0c00006e0c0000b6
:10027800720c0000760c00007a0c00007e0c000066
:10028800820c0000860c00008a0c00008e0c000016
:10029800920c0000960c00009a0c00009e0c0000c6
:1002a800a20c0000a60c0000aa0c0000ae0c000076
:1002b800b20c0000b60c0000ba0c0000be0c000026
:1002c800c20c0000c60c0000ca0c0000ce0c0000d6
:1002d800d20c0000d60c0000da0c0000de0c000086
:1002e800e20c0000e60c0000ea0c0000ee0c000036
:1002f800f20c0000f60c0000fa0c0000fe0c0000e6
:10030800020d0000060d00000a0d00000e0d000091
:10031800120d0000160d00001a0d00001e0d000041
:10032800220d0000260d00002a0d00002e0d0000f1
:10033800320d0000360d00003a0d00003e0d0000a1
:10034800420d0000460d00004a0d00004e0d000051
:10035800520d0000560d00005a0d00005e0d000001
:10036800620d0000660d00006a0d00006e0d0000b1
:10037800720d0000760d00007a0d00007e0d000061
:10038800820d0000860d00008a0d00008e0d000011
:10039800920d0000960d00009a0d00009e0d0000c1
:1003a800a20d0000a60d0000aa0d0000ae0d000071
:1003b800b20d0000b60d0000ba0d0000be0d000021
:1003c800c20d0000c60d0000ca0d0000ce0d0000d1
:1003d800d20d0000d60d0000da0d0000de0d000081
:1003e800e20d0000e60d0000ea0d0000ee0d000031
:0803f800f20d0000f60d0000fb
:020000040000fa
:101800000200000032340400000000003234040002
:1018100000000000323404000000000032340400f4
:1018200000000000323404000000000032340400e4
:1018300000000000323404000000000032340400d4
:1018400000000000323404000000000032340400c4
:1018500000000000122b04000000000032340400dd
:1018600000000000323404000000000032340400a4
:10187000000000003234040000000000763f040045
:101880000000000032340400000000003234040084
:101890000000000032340400000000003234040074
:1018a0000000000032340400000000003234040064
:1018b0000000000032340400000000003234040054
:1018c0000000000032340400000000003234040044
:1018d0000000000032340400000000003234040034
:1018e0000000000032340400000000003234040024
:1018f0000000000032340400000000003234040014
:101900000000000032340400000000003234040003
:1019100000000000323404000000000032340400f3
:10192000000000002e2c04000000000032340400ef
:1019300000000000323404000000000032340400d3
:1019400000000000323404000000000032340400c3
:1019500000000000323404000000000032340400b3
:1019600000000000323404000000000032340400a3
:101970000000000032340400000000003234040093
:101980000000000032340400000000003234040083
:101990000000000032340400000000003234040073
:1019a0000000000032340400000000003234040063
:1019b0000000000032340400000000003234040053
:1019c000000000005a2c0400000000003234040023
:1019d0000000000032340400000000003234040033
:1019e0000000000032340400000000003234040023
:1019f0000000000032340400000000003234040013
:101a00000000000032340400000000003234040002
:101a100000000000323404000000000032340400f2
:101a200000000000323404000000000032340400e2
:101a300000000000323404000000000032340400d2
:101a400000000000323404000000000032340400c2
:101a500000000000323404000000000032340400b2
:101a600000000000323404000000000032340400a2
:101a70000000000032340400000000003234040092
:101a80000000000032340400000000003234040082
:101a90000000000032340400000000003234040072
:101aa0000000000032340400000000003234040062
:101ab0000000000032340400000000003234040052
:101ac0000000000032340400000000003234040042
:101ad0000000000032340400000000003234040032
:101ae0000000000032340400000000003234040022
:101af0000000000032340400000000003234040012
:101b00000000000032340400000000003234040001
:101b100000000000323404000000000032340400f1
:101b200000000000323404000000000032340400e1
:101b300000000000323404000000000032340400d1
:101b400000000000323404000000000032340400c1
:101b500000000000323404000000000032340400b1
:101b600000000000323404000000000032340400a1
:101b70000000000032340400000000003234040091
:101b80000000000032340400000000003234040081
:101b90000000000032340400000000003234040071
:101ba0000000000032340400000000003234040061
:101bb0000000000032340400000000003234040051
:101bc0000000000032340400000000003234040041
:101bd0000000000032340400000000003234040031
:101be0000000000032340400000000003234040021
:041bf00000000000f1
:020000040000fa
:101c00002f9a20000e7f22000e01880000000000a5
:101c100000012000200288000c000700400424007e
:101c20000100200011000700000020000000e0007b
:101c3000020032000000020000000000c02e02007e
:101c4000000000000040da000000fe004440a9004f
:101c5000a0a120000000e0000300320000002000ee
:101c6000a00188004440a8000000060091018800ff
:101c7000800078000000eb0015003700e280400093
:101c800032a0b4009101ba00e280400032a0b4005a
:101c90009102ba00e280400032a0b4000002eb00e2
:101ca000472bde00f507b200602ce10004003a008b
:101cb0000059eb008301e900fdff3e0004003700fe
:101cc0006128e100010032000082eb0004000700ff
:101cd0001101ba000200e000e8ff3a00000006002f
:101ce0003159ba008301e9000c0032002159ba00d1
:101cf0008301e900080032000400e00003003a001c
:101d0000e280400032a0b400f5ff370011d9ba00dc
:101d10008301e900faff3a008100e800e180400019
:101d200032a0b400000006001004b1000700350026
:101d30009001b100040034007000b10003003500d0
:101d40009001b10001003c001000050000000500fa
:101d50006900e100040035006d00e100030034007b
:101d60000002b10001003200000005001000050073
:101d70001004b100030035009001b10001003c00e7
:101d80001000050000000500800078001104b1007b
:101d9000030035009101b10001003c000050a0009b
:101da0000000060003f0a200889fbe008a9fbe00cc
:101db0008c1f7800060107000d0133006450e1001c
:101dc0004f0032006420e1005200320003826c00b8
:101dd00007003b000905d0000306d000820f540025
:101de0000c065d0002003900020032008901780013
:101df000030678008582550004003d000003fd00c5
:101e00008103fd008502ea008b854200840f720089
:101e100002003b0060001000e08018006011b80074
:101e20000005eb007a28e1000a003900060078007e
:101e3000c75ddd00f707b200878075002d00370011
:101e4000828171000a017800610560008180d10003
:101e50000080d3008502e900f9ff3b000604400042
:101e60008784480002003b0060041400e0841c00ea
:101e70000988a300070032008a8171008281710005
:101e8000610164008904d1000884d3008b05e80057
:101e9000170037000978a30013003a000b00e00098
:101ea000130034008b05e9000804440089844c00c9
:101eb0000a4474000978a3000d003a000b00e0000a
:101ec000070034008b05e9000804440089844c00b5
:101ed00001003a000b0020000978a300f7ff320050
:101ee0000001eb0002003700828171000a017800d6
:101ef0007c0007000cf0a70001f0a000c50037002f
:101f00006420e10002003a00838f6c00c5003300ba
:101f10000801be000200be00be003700889fbe0060
:101f20008a9fbe008c1f7800a9000700b000330014
:101f300003866c006450e1002e0032006420e10052
:101f4000330032006150e1002f0032006120e100d7
:101f50003100320085855500eb07b00009002000f4
:101f600008042000050037000804440089844c0060
:101f70000a0031000603430087834b000001530031
:101f800081815b00f8ff33000203be000800a0005f
:101f90000804440089844c00f6ff3900c639dd008e
:101fa0008301730001003200130020008904d10076
:101fb0000884d3000998a300050032000800a70098
:101fc0000300a0008904d1000884d3008b05e80039
:101fd0008904d1000884d3000001eb000281d20003
:101fe0004000070001f0a1000cf0a70001f0a000e4
:101ff000880037006420e1008a0032000801be003a
:102000000200be00f7ff37006120e10085003200ca
:102010006000b800f3ff37000000200001f827003f
:10202000f0ff3700839f68000100e00002003d00e0
:1020300060001000e08018000300e00002003d0096
:1020400060011100e0811900ad0007004f00e000c1
:1020500002003b0060001000e08018000000060055
:1020600014002000b6003700f4ff2f00b400370042
:102070000001be00410007000470a70003f0a100aa
:1020800003f8a30013003a006509b1001000320004
:10209000090035006928e100020035000100280030
:1020a0000000050000004000818048008502e90032
:1020b000fcff3a0000000600f88f420005003500e2
:1020c0008100d1000080d3008502e800fcff3a00c7
:1020d000000006008000eb00000005006011b80061
:1020e000b200370081002000618055000b003d00e8
:1020f0000b00200061fe2f000100e1001d003400f4
:1021000082817100610164008904d1000884d300d8
:102110000000e800faff3a0071002000610064004e
:1021200003007000020060000900320061044400f6
:10213000e0844c000988a500050032008b05e8000a
:102140006808e10002003a008904d1000884d30045
:10215000f20f20000258e10005003d00c75ddd00e0
:10216000f907b200898075000800780000000600b9
:102170000bf827008b00780000000500c70ade007e
:10218000f107b200f50fb20008003200e1cf4200c3
:10219000020032000170a00024000500810f7000d1
:1021a000010032000408050044000500810f7000a2
:1021b00002003a00140005008502e900000040001a
:1021c00081c04800fcff3b000170a0002400050016
:1021d0000004be00e9ff07000003be000405be00c6
:1021e0000200be00e5ff0700844f750000000600f6
:1021f0000200be006450e100050036006420e100ea
:10220000020036000968a30001003a000800be0081
:102210000160a0004f0678004f05be004f04be00cd
:1022200000000600f0ff2f00f1ff2700f9ff370044
:10223000889fbe008a9fbe008c1f7800e4ff0700c5
:10224000ebff330003866c006450e1002400320091
:102250006420e100270032006150e10022003200da
:102260006120e100210032008b854200eb07b100c4
:102270000134b800003ab8000804420089844a00da
:10228000013ab8000030b8008880400009014a00d7
:102290000400330000004000818048000201490032
:1022a0008b05e900c909dd008301700001003200df
:1022b00013002000c814de004814dd004709de00ca
:1022c0001200b200c808de000884700085ff070015
:1022d00001f0a1000cf0a70001f0a000cdff370035
:1022e0006120e100cfff32000801be000200be0005
:1022f000f7ff37006150e100fcff3a00c9ff3700eb
:102300006022b800060220000000d0008180d200c8
:102310000482d2008582d2000000a0000202520096
:1023200083825a00030031000202420083824a0085
:102330000000a1000603e900f3ff3a0000000600d8
:10234000889fbe008a9fbe00841f7800a0ff070000
:102350004f00780011003300f0ff2f00838f6c00d6
:1023600006003b00040565000a00a70008003700ce
:1023700009f0a6001000200008003700820f54006a
:10238000838f5c00030039001000200001003e0034
:102390000000200009f0a7000000ea004f05be0081
:1023a0004f04be000000e00000000600889fbe0051
:1023b0008a9fbe00008270000402710004827100d6
:1023c000260032000004be000200be006011b8000a
:1023d0006b092000950220000182cf000a0039001d
:1023e0000541b1000082cf00070039000541b1006e
:1023f0000982cf00040039000541b1000882cf00f6
:10240000010039000541b1000542520012003200be
:102410000a003b0082817100610164008100d100eb
:102420000080d3008984d3000884d3008b05e800a2
:102430000442e800f7ff3a000700370008044400b0
:1024400089844c0000004800818048008b05e90029
:102450000442e900f9ff3a0022ff07004f05be00e1
:102460004f04be0000000600889fbe000004be00ae
:10247000050037000000fb00890078004c020700cf
:10248000e10f40000400320038407800e04f500077
:10249000f8ff3a000000eb004f04be000000060009
:1024a000881f7800a1912000efff0700000478004a
:1024b000a1912000a00020003d0207000800780044
:1024c0004f047800000006000c00fa00a0bf9f0037
:1024d000c0bf9f007a020700b0bf9f00f0bf9f00ff
:1024e000140c2000d4bf9f0074815700efb09700f8
:1024f0006c805700340007000080fa0000000600de
:10250000881f7800e0498000a801070000047800d7
:10251000080078000efe0700e00f5000f9ff3a00b7
:10252000e10f440003003200e14980000800780018
:102530006a0207004f04780000000600889fbe0072
:102540008a1f780000047800814478000205780032
:1025500004fd2f0008024200e90f520002003e0075
:10256000040478000f0037000800780000fe070020
:10257000e00f500005003200e00f5500030032006c
:102580000800780000fe07000004780008007800ca
:10259000e5fd070000c2eb00e00f5000060032002e
:1025a0007805b1008984fb0000c2eb00890f54005c
:1025b00001003d0008427800044078004f05780093
:1025c0004f04be0000000600f0874700889fbe0051
:1025d0008a9fbe008c9fbe008e1f780081bf9f0027
:1025e00002077800e04988000002eb00d4b79f00a2
:1025f00004447800350137008fba97008502e8005f
:1026000085bf9f008985fb000b007800d0fd070087
:10261000e00f500002003200b9ff07002b01370025
:1026200054c2b30084cf54001c013a0080447800a7
:1026300025c0b300004578000fb897000546780024
:1026400080057800040037004cc0b300010037005b
:102650002cc0b3000b0078003b42780095c6b30055
:10266000854f5200960032001d003e00e6c2520027
:10267000854f52006a00320012003e00f7c252003d
:10268000854f52002f00320006003e00e04f5200fe
:10269000aa003200a5c2b300854f520074003a0070
:1026a0002600370085c5b300854f520070003a0000
:1026b0009cef9f008bbf9f0015002000d5b79f00a7
:1026c0001c00370045c6b300854f52007c00320025
:1026d000e4c24200854f520065003a00dcff37003b
:1026e00035c7b300854f52001a00320007003e0084
:1026f000e7c25200854f520012003200e3c242008e
:10270000854f52005a003a007100370055c7b30098
:10271000854f52006a003200e3c24200854f5200ea
:1027200053003a009cef9f008bbf9f000002eb001c
:10273000d4b79f000bc1b300680037000a45e8001a
:10274000c4ff3700e24f5600bfff32008cc0b30019
:10275000c0ff37008bbf9f0069ff0700e04f5500a7
:1027600002003a004e027800e4b79f00e049800082
:102770000e01070080057800e18f450014003a0043
:102780000b007800ce0037008fba97001502fb00cf
:10279000848f550005003a000c027800e4b79f00d2
:1027a0008502e80085bf9f0017003700e04f550005
:1027b00001003a000b5e78008944e9000d00320008
:1027c000e0498000f900070080057800010037002b
:1027d0006fb697000b02e800e10f520008003600c8
:1027e0000b0078005afd0700e00f5000e6ff3200b2
:1027f000030037000c027800e4b79f0002003700a6
:102800008c027800e5b79f00e04f5500af003a001a
:102810000844e8006fb297000a4a7800ab0037001e
:102820008bbf9f00e04f550003003a000844e800ca
:10283000ce05780001003700efb59700e049800031
:10284000da000700e10f40009d003200e04f550024
:1028500001003a00805d78008944e9004240a90007
:10286000f6ff3c000b027800e4b79f0097003700aa
:102870008484fb0004fd2f0009024200e90f52008e
:1028800009003e00aa000700804478000b0278008f
:1028900084057800b402fb000503b100e98f520003
:1028a000fbff36006bff37008bbf9f00e0498000c5
:1028b000be000700808f54007c003a008300370080
:1028c0009cef9f008bbf9f00abc0b300030037009d
:1028d0009cef9f008bbf9f008bc0b30008ff0700d9
:1028e000e0498000b1000700f0b79f008042eb0094
:1028f00085ef9f00d402200080027800848f520070
:1029000005003a00e0498000a8000700f0b79f00ea
:1029100014c0b30084ef9f005fb197008b40780034
:102920007fb0970005ff0700e14f40000b003a0021
:10293000e14980007fb0970068010700e04f540034
:1029400066003a00e44980003400900070006000a6
:10295000630032000080eb006100370004032000b8
:10296000ffb29700848f520015003a00e0498000c2
:102970008e00070084072000840f500004003a00f6
:102980005fb29700e00f5200070032000a003700e4
:1029900084052000840f500007003a00dfb2970042
:1029a000e08f520004003200e04980007f00070001
:1029b000f0b79f0002003700e1498000470107009f
:1029c0006066b8000b82fb0005002000a4b79f00e2
:1029d000b5b79f002fb19700bfb197000c00be00a4
:1029e000f80107000006be005fb197008b40780039
:1029f0007fb09700d1fe07000080fb00010020009f
:102a00000006460081864e008944e9000800320035
:102a1000e049800065000700f0b79f005fb19700b4
:102a20008b407800c5fe0700e14f4000e9ff3a0007
:102a30005fb197008b4078007fb09700bffe070022
:102a4000e14f400003003a00e14980007fb0970069
:102a5000220107008fea9700e0cf52000200320007
:102a600060061600e0861e00e04f550017003a0091
:102a70000844e8000e87e9001fea9700e44f52007f
:102a800003003a001e0278000c8abe000f003700d7
:102a90001e0278000c0a78000c003700e049800024
:102aa00042000700808f550008003200e10f40000f
:102ab00003003200e14980000801070007003700e9
:102ac000e04f540005003a00050037000fba9700a8
:102ad00094447800e0cf5400c7fe3a000880fb0021
:102ae0004f0778004f06be004f05be004f04be00e2
:102af0000f01b100000006000000fa0068815700d5
:102b0000cfb89700a0912000c80207000080fa000b
:102b1000000006000000fa0068815700cfb8970057
:102b2000a0912000c10207000080fa00000006000a
:102b300006c2b3000002780004007800b0427800ba
:102b400086cf5200fbff3200e9cf5200f9ff32007e
:102b5000d6c2b30086cf520003003a0000027800cc
:102b600016c0b300050037000043eb00b7c2b30046
:102b700087cf520001003a00000278000000eb000d
:102b8000020037006a00b90000804200b402fb0076
:102b90000503b100e98f5200faff3600e04f530001
:102ba000010032000000ea0000000600881f7800e3
:102bb0000004780038029000f1026200e18f5200b8
:102bc00006003a00840278000520b20008003200b6
:102bd00098029000e08f5200050032003802900009
:102be0000440a000340498000080eb00200037006f
:102bf0000490a1003404980018029000e00f5200e5
:102c0000070034000402e900140498001802780058
:102c1000944278000580fb00040ce80005003700b2
:102c2000380290000404b200ecff3a00080078007b
:102c300011000700380290000408b2000c003a00ae
:102c4000fa0f500008003a0028029000e00f5200ee
:102c5000e2ff3200180290000402e8001404980019
:102c6000180ce900ddff3700ed0f5000e2ff3200e5
:102c70004f047800000006000200fa00889fbe00a2
:102c80008a9fbe00000478000002eb001404980044
:102c900038029000610262000080eb0040003200c8
:102ca000449320008042eb0094cf12000f003200ca
:102cb0002b932000c9fd2f008b8444002a10200094
:102cc000390290002410b2008a0f520002003a002c
:102cd000090078009d000700ec8444008b8f5400ad
:102ce000f7ff3a0044932000004aeb00580190009f
:102cf000e00f51000e003a0012049800120020006c
:102d0000ea80570048009000e1100700e10f5000f2
:102d100003003a006ff297000480fb0020003700a8
:102d2000380290000440a0003404980013003700db
:102d3000a800900048009000d510070010049800eb
:102d4000e00f500003003200e10f40000d003a0098
:102d500003003700380290000440a0000200370052
:102d6000380290000403b30034049800a8029000d5
:102d7000050c78000002eb00140498000080eb00c2
:102d80000700370028029000040c78000000e900da
:102d900010049800944278000580fb00040ce800c1
:102da0004f05be004f04be000080fa000000060080
:102db000889fbe000104780038029000e2026200a1
:102dc0008084eb003b003200040378000620b20050
:102dd0009802900002003a00e08f520035003a005d
:102de0000490a0003404980080047800f90fb20029
:102df000e08f520002003a00a8029000050c780013
:102e0000ea8f540005003a000408b20003003a00bb
:102e100088007800d0002000e5ff0700180290002d
:102e2000d8029000850f52000b0032000402e80027
:102e30001404980018027800094a7800040ce8008d
:102e400015c0b30044932000054a7800ea8f54006f
:102e500018003a0005003700880078000940780023
:102e600064000700800478001200370038029000e8
:102e70000410b2000f00320018019000a80090006a
:102e8000480090009f00070018029000840f500037
:102e900004003200380290000403b30034049800a8
:102ea0008084eb000002eb001404980028029000dc
:102eb000040c7800090078004f04be0000000600f2
:102ec000000278008042eb00b4cf1200fdff3a0010
:102ed0000080ea000000420000000600e10f400010
:102ee00019003200310290001420b200e10f5200ac
:102ef00012003a0021039000e00f53000f0032004f
:102f000011029000d1029000850f52000d00320096
:102f100091027800868f520002003a008508e8008e
:102f2000020037000402e800940098001102e90052
:102f300084087800004a7800000006000080eb005a
:102f4000000006000080eb0000000600881f7800eb
:102f50000004780038009000000278001420b200cd
:102f6000e10f520005003a000002eb001404980043
:102f700028029000040c78001900370080027800c5
:102f80002520b2000000eb0024202000848f520096
:102f900016003a00a8009000808f50001300320005
:102fa00018019000800f510010003200480090007e
:102fb0005400070018029000840f500003003200f4
:102fc000380290000403b300340498000002eb00c0
:102fd0001404980028029000040c78003800900037
:102fe0000002b200010032000080eb004f047800c4
:102ff000000006000200fa00889fbe00a0ff9f00ac
:103000000104780038029000840278000504b200c0
:10301000020032000000fb0035003700e2026200cf
:1030200005003a000403b300340498001504980026
:103030000080eb002e003700d8049000e08f540091
:1030400006003a0012002000e68057004800900079
:103050002c0007001904980023003700a8029000f4
:10306000e08f520008003a00759320002504980074
:10307000050c7800250020005504980015049800e0
:103080000430a0003404980018019000a8009000bb
:10309000480090001b000700280290008082eb008f
:1030a00015049800affa9700054a7800040ce80070
:1030b0002ffa9700ea4f52000b003a0038029000b6
:1030c0000410b2000800320018019000a80090001f
:1030d000480090000b0007000002eb001404980069
:1030e000a8029000050c78002ffa97000400fb005e
:1030f0004f04be000080fa000000060000c0da00a5
:10310000000006000a00fa00e20f500022003e0014
:10311000d4498000e10f52000600320087232000ce
:10312000462320002423200005232000e08f5300a5
:1031300004003a008722200046222000242220009a
:1031400005222000000028001500600003003a005e
:10315000800b780007002800958a73000540200046
:103160009482620001003a0014a0a000820278005c
:1031700006003700940378000710b200fdff32000c
:10318000b103fb00070b78008502e900e08f5200d5
:10319000f8ff3a000800370034002000b4bf9f0059
:1031a000c0bf9f00d1bf9f00e2bf9f006a80570051
:1031b000d2ff07006fb99700020078000080fa0084
:1031c00000000600020ab900001bb9000200b800a6
:1031d000810042008100430000000600889fbe007d
:1031e0008a9fbe003004be002005be0004044400d7
:1031f00085844c0006054d0087854d000898be006b
:103200000a90be000440e10005c8e10006d0e100dc
:1032100007d8e10002003100680040001008e80013
:103220004f05be004f04be00000006001000fa006b
:10323000889fbe008a9fbe000605be000404be0033
:103240003002be002003be00c4b79f00d5b79f0068
:10325000e6b79f00f7b79f000802520089825a0024
:103260000a035b008b835b0084bf9f0095bf9f00b8
:10327000a6bf9f00b7bf9f000498be000698be007f
:10328000110020004fb29700dfb297006fb3970094
:10329000ffb397000820e10009a8e1000ab0e100af
:1032a0000bb8e100010039008000eb00108810002d
:1032b0004f05be004f04be000080fa00000006006b
:1032c0001400fa00889fbe008a9fbe008c9fbe003b
:1032d0003f0007000605be000404be000006eb0028
:1032e000ccb79f00bcb79f00acb79f009cb79f00b6
:1032f0008cb79f000d0420004fb39700bfb297001a
:10330000860343002fb29700e00f530004003d00f6
:103310003d0007000f004000b0ff0700030037002a
:10332000390007000f004000c0ff0700cfb2970030
:1033300095bf9f00e08f5200090035002b00070069
:1033400014002000050020006033b8000000720067
:103350008180720002017300838173001c000700ea
:103360000c06e8008d0f5600e3ff3a001fba9700e5
:10337000e00f520005003d000802be000a03be0037
:1033800000fe2f000f00400094ff07004faa970097
:10339000e00f520008003a000fb497009fb4970066
:1033a0002fb59700bfb59700d8b79f00e9b79f002a
:1033b000fab79f008bbf9f000c0007004f06be00ae
:1033c0004f05be004f04be000080fa00000006005a
:1033d000010007000000060090b79f00a1b79f0002
:1033e000b2b79f00c3b79f000000060001000700ae
:1033f000000006001fb09700afb097003fb19700e4
:10340000cfb19700000006004f2bde00870373004a
:10341000a7b79f004f23de0085824200850273001c
:1034200095b79f00ffaa97004f2bde0004024200d1
:103430000402730084b79f006faa97004f23de0039
:103440008582420085027300f5af9f00e9ff070007
:103450004f18de000402420000027200e4af9f0039
:10346000e4ff07000000400081804800020149009d
:1034700083814900d8ff07000802be000a03be008e
:1034800000fe2f0000000600881f780018002000b2
:10349000881f78008aff07008f87e9004f047800b3
:1034a00000000600801feb0085ff07008f87e90002
:1034b00000000600889fbe008a9fbe00e00f5000fb
:1034c000e08f5800e00f5900e08f59000c003d00dc
:1034d0006044b8006055b8000000540081805c0072
:1034e00002015d0083815d001800200015000700c7
:1034f00008003d00180007000004eb00050037003d
:103500000004eb000f00070002003d00120007005e
:1035100018002000dcff0700e00f54000600320016
:103520006022b8006033b8000000520081805a0069
:1035300002015b0083815b004f05be004f04be00ab
:1035400000000600e00f5200e08f5a00e00f5b0021
:10355000e08f5b00000006006044b8006055b800d2
:103560000402540085825c0006035d0087835d00d1
:1035700000000600889fbe008a9fbe008c1f780056
:10358000e00f5000e08f5800e00f5900e08f590025
:103590000d003d006044b8006055b80000005400c4
:1035a00081805c0002015d0083815d001c002000c1
:1035b0000820e10009a8e1000ab0e1000bb8e10031
:1035c0000d003d00080037000006eb00e00f520040
:1035d000e08f5a00e00f5b00e08f5b0006003d00cb
:1035e0006044b8006055b8000402540085825c0055
:1035f00006035d0087835d00aaff0700e00f560009
:10360000060032006022b8006033b80000005200ab
:1036100081805a0002015b0083815b004f067800c5
:103620004f05be004f04be00000006002f03b0008f
:10363000889fbe008a9fbe008c9fbe008e1f7800b0
:10364000e0af9f00c1af9f00b2b79f008006eb00c4
:103650006e023700cfa897008100e800c1af9f003d
:1036600054c2b300844f500006003a0001027800b3
:103670000006eb0001c3b30000c2b300b7c2b30041
:10368000070037000000fb00efa89700c8fd070007
:10369000e10f40005d0232008d06e8005b0237005a
:1036a0008402780034437800d2c2b300824f5300c2
:1036b0000900320005003c00804f53000800320032
:1036c000874f53000c003a0007003700814f53002a
:1036d00009003a00060037000c30a000f0ff370068
:1036e0000c00a000eeff37000c10a000ecff37002c
:1036f0000c20a000eaff37006202660001003200e1
:103700000c00a10068026600010032000c20a1003c
:103710000602fb000403b100e90f52000c003e005a
:10372000050378000002eb006a22b900b603fb0033
:103730000703b10004824300860278009603fb0071
:103740000703b100e98f5300f7ff36000800370088
:103750000002eb00a7c2b300874f530004003a00f9
:10376000bfb1970043027800b3b79f008502e8001d
:103770000007eb00e6c2b300954f13000a003a00c1
:103780000ce0a00064435300d54f13000200320048
:1037900005037800080037003fb39700460778001c
:1037a000b6b79f008502e8000503780008003700df
:1037b0006a70b9000087430086027800b603fb00f8
:1037c0000703b100e98f5300f9ff3600f6ff370019
:1037d000b6427800c6af9f00c0c6b30080cf52008b
:1037e000250032000f003c0036c6b30086cf5200e1
:1037f0006e00320004003c00e0cf520008023200ac
:103800006b4353000f00370046c6b30086cf52000b
:10381000170032006543430086cf520083003a0010
:103820001300370036c7b30086cf52001f003200a6
:1038300007003c006443530086cf5200140032005e
:103840000643e80086cf520078003a0013003700a4
:1038500056c7b30086cf520079003200634343005d
:1038600086cf520071003a00a5c79f000d003700b7
:10387000a5c79f0074003700f00366000501200013
:10388000010032000500280005067600d0ff370051
:10389000a5c79f000c60a0006b003700a5c79f0064
:1038a0000c50a0000c70a00067003700a5c79f0057
:1038b000bfb09700c1027800b1b79f00050478003f
:1038c000e08f520001003a00689020000803780061
:1038d0008002eb00010037008502e800e6c37a00b1
:1038e000e0cf5300fcff3a0085047800e00f57005a
:1038f00003003200890f5700010031008e04780068
:103900000007eb00890f5200010036000907520042
:103910006806660014003a0007003700efa8970019
:103920000002200022fd0700e10f400001003200ec
:103930008d06e8000e07e900e00f5700f7ff3a0098
:103940000087eb0008003700080278003400fb0015
:1039500004047800efa8970015fd0700e10f400070
:10396000010032008d06e800090278008404e900b5
:10397000e00f5200f4ff3a00e00f5600a3013200be
:1039800007003700efa897000002200008fd07009d
:10399000e10f4000010032008d06e8000e07e9004b
:1039a000e00f5700f7ff3a00980137003fb197004a
:1039b000c2027800b2b79f0005007800cf80de0019
:1039c0000101780082017800f0af9f0081b79f006d
:1039d00092b79f00a3b79f004800de00c80add0031
:1039e00000807200a0c79f007003660009003200cb
:1039f000e04f500007003200e14f40000500320068
:103a0000b0c79f006fdb9700c6c79f00290020004a
:103a100003003700efdb9700b7c79f0019002000b5
:103a200038fc2f000f044400b0ff3700a5c79f00eb
:103a300028fc2f000f04440019002000abff3700c2
:103a4000a5c79f000c0cb3008c027800050cb200d7
:103a50002b003a00e00f560005003d003fb09700f4
:103a60004005be004004be00b0b79f0017003700fd
:103a7000f00266000f003200bfb297004501be00a1
:103a8000b5b79f00c2a79f00d3a79f00050378008a
:103a900096029000cfaade00e5a79f00f5a79f0041
:103aa0004fa49700dfa497006fa59700ffa597008c
:103ab000060037003fb0970040047800b0b79f0081
:103ac000cfc4de00090578008a057800e00f5400b5
:103ad000e08f5c00e00f5d00e08f5d0025003d00a1
:103ae0003c00b3006000b8006011b800080450004a
:103af000898458000a0559008b8559001d0037003c
:103b0000e00f560005003d00bfb097004105be0024
:103b10004104be00b1b79f0016003700f0026600f6
:103b20000e003200bfb297004501be00b5b79f003e
:103b300082af9f0093af9f000003eb00a6af9f00f2
:103b40008003eb00b7af9f000fac97009fac9700ce
:103b50002fad9700bfad9700060037003fb097002c
:103b600040047800b0b79f00090020000a00200040
:103b70000b002000e00f570007003a001e00200055
:103b8000e00f5400e08f5c00e00f5d00e08f5d000f
:103b9000010032000007eb008c007800010cb2003d
:103ba000f1af9f0005042000858f50002c003200eb
:103bb00003003c00e08f5000080032003c0037005a
:103bc000050820007fa99700850f510010003200e2
:103bd000050c2000850f510035003a00c6842000f6
:103be00015c0b3003600be003601be000040e10043
:103bf00001c8e10002d0e10003d8e1002b00390048
:103c00008542e800f4cf5200f6ff3a002700370063
:103c100015c0b30000012000010020006011b800b1
:103c20000040e10001c8e10002d0e10003d8e1005a
:103c30001e003900460020000000d0008180d20024
:103c40000281d2008381d2000603e900faff3a0024
:103c50008542e800f0cf5200f1ff3a001300370030
:103c600015c0b30080002000010020006011b800e2
:103c70000040e10001c8e10002d0e10003d8e1000a
:103c80000a003900370020000000d0008180d200f7
:103c90000281d2008381d2008703e900faff3a0053
:103ca0008542e800f5cf5200f1ff3a00a5c79f001a
:103cb0002fc097008002fb008e8f520002003d0053
:103cc000aec79f0003003700850f570001003d007d
:103cd00005077800e00f520003003200e30266009f
:103ce000010032000402e90005002400850266009c
:103cf000050032008e0f5200020034000e02520006
:103d0000010037000002eb002fc197008202fb0088
:103d10008001eb00d3af9f00850f520002003400fa
:103d200085025200d5af9f00640266002c0032006d
:103d3000e202660061026600e08f52000600320077
:103d4000b0022000e00f5200010032000080e800c5
:103d5000efa8970004003700e00f52000600320081
:103d6000efa897000002200011fc0700e10f4000bf
:103d7000010032008d06e8005faa9700e00f5200b4
:103d80008d0032000802be000a03be00dfac9700bf
:103d9000efa8970000032000c4b79f00d5b79f008d
:103da000e6b79f00f7b79f0001fc07004fb29700ee
:103db000dfb297006fb39700ffb39700e10f4000a9
:103dc000010032008d06e8008904e900f0ff3a00a6
:103dd000d9af9f000605be000404be007600370080
:103de000dfaa9700e08f52001800320068026600d8
:103df00016003a000802be000a03be00dfac9700be
:103e0000efa8970000022000c4b79f00d5b79f001d
:103e1000e6b79f00f7b79f00e5fb07004fb297009a
:103e2000dfb297006fb39700ffb39700e10f400038
:103e3000010032008d06e8008904e900f0ff3a0035
:103e4000d9af9f000605be000404be00e202660072
:103e500061026600e08f520006003200b0022000ce
:103e6000e00f5200010032000080e800efa8970048
:103e700004003700e00f52004f003200efa8970017
:103e800000022000cafb0700e10f40004a00320098
:103e90008d06e800480037000e07e9007fab970069
:103ea00007042000870f53002d00320003003c0060
:103eb000e00f5300080032003700370004082000ec
:103ec0007fae9700840f560012003200040c2000d1
:103ed000840f560030003a004372dd004084200019
:103ee000000242005403be004402be000800be00af
:103ef0000a01be0064fd0700a400200005002000a8
:103f00006033b80067fd070004c3b30004424000fb
:103f100020003700548f2000bfa29700e08f52008e
:103f200001003200448e2000c272dd000800be0095
:103f30000a01be008502e900050033008301d100bb
:103f40000281d3008180d3000080d300f9ff3700c5
:103f50006f00600064407800a0c79f000e0037002b
:103f60006372b9000800be000a01be0004067800b2
:103f70000c06e900050033008301d1000281d30063
:103f80008180d3000080d300f9ff370067426000d2
:103f90000443b000a4c79f00afc097000100fb001e
:103fa000efa8970082fb0700e10f400006003200f7
:103fb0008d06e800040037000c0178000202b20010
:103fc000b2a79f008cbf9f00e00f5700b2ff3a00de
:103fd0000fbe9700680666000c003200dfa997004c
:103fe000e08f51000900340003067800efa8970025
:103ff000000220006efb0700e10f400001003200cc
:104000008d06e8000c06e900f8ff3a004faa970079
:1040100014407800a0c79f00e04f50008dfd3a008b
:104020000d0078004f0778004f06be004f05be0018
:0c4030004f04be002f03b100000006008a
:020000040000fa
:10403c00556e0000686100006e6400006c65000045
:10404c0064200000696e000074650000727200004c
:10405c0075700000742c0000200000005049000016
:10406c0043320000344800004a3600003447000058
:10407c005035000030360000007500006e6b0000fb
:10408c006e6f0000776e00000041000033000000ee
:10409c004134000000410000350000004465000080
:1040ac007669000063650000204900004420000090
:1040bc003d2000000020000028000000292c0000fa
:1040cc00207200006576000069730000696f0000c3
:1040dc006e200000002900000a0000000a0a0000ff
:1040ec002a2a00002a2a00002a2a00002a2a000074
:1040fc002a2a00002a2a00002a2a00002a2a000064
:10410c002a2a00002a2a00002a2a00002a2a000053
:10411c002a2a00002a2a00002a2a00002a2a000043
:10412c002a2a00002a2a00002a2a00002a2a000033
:10413c002a2a00002a2a00002a2a00002a2a000023
:10414c002a2a00002a2a00002a2a00000a2a000033
:10415c0020570000415200004e4900004e4700001d
:10416c00202d0000207400006869000073200000fe
:10417c00707200006f670000726100006d2000001b
:10418c007761000073200000636f00006d70000009
:10419c00696c000065640000206600006f7200000e
:1041ac00207400006865000020770000726f00002a
:1041bc006e670000202000002a0a00002a20000060
:1041cc0063680000697000002e2000005468000035
:1041dc006973000020700000726f000067720000ad
:1041ec00616d0000206d00006179000020700000fe
:1041fc00726f00006475000063650000207500009c
:10420c006e65000078700000656300007465000046
:10421c00642000006265000068760000696f000091
:10422c0072210000202a00000a2a0000204500000c
:10423c0064690000742000007468000065200000b0
:10424c006865000061640000657200002066000073
:10425c00696c000065730000207400006f20000082
:10426c00707200006f700000657200006c790000c5
:10427c002064000065660000696e00006520000087
:10428c007468000069730000206300006869000016
:10429c00702000002a0a00002a200000616e000035
:1042ac0064200000746f0000206900006e73000031
:1042bc007572000065200000636f000072720000d0
:1042cc0065630000742000006f70000065720000d0
:1042dc0061740000696f00006e2e00002020000049
:1042ec0020200000202000002020000020200000c2
:1042fc0020200000202000002020000020200000b2
:10430c00202a00000a2a00002020000020200000a3
:10431c002020000020200000202000002020000091
:10432c002020000020200000202000002020000081
:10433c002020000020200000202000002020000071
:10434c002020000020200000202000002020000061
:10435c002020000020200000202000002020000051
:10436c002020000020200000202000002020000041
:10437c002a0a00002a2000004e4f0000544500007d
:10438c003a200000496600002074000068690000b3
:10439c00732000007761000073200000636f000041
:1043ac006d700000696c0000656400002066000000
:1043bc006f7200002074000068650000206300002c
:1043cc006f720000726500006374000020630000cf
:1043dc0068690000702c000020200000202a0000da
:1043ec000a2a0000206100006e640000206f0000ab
:1043fc006e6c0000792000006f6300006375000094
:10440c00727300002061000074200000706f0000c7
:10441c0077650000722d00006f6e000020280000f0
:10442c006e6f00007420000064750000726900005b
:10443c006e67000020610000204d0000434c00001e
:10444c005220000020200000202000002a0a00003a
:10445c002a200000726500007365000074290000ba
:10446c002c2000007665000072690000667900005f
:10447c0020740000686100007420000041560000a8
:10448c0044440000206100006e64000020410000e4
:10449c00565300005320000061720000652000009c
:1044ac00636f00006e6e00006563000074650000b1
:1044bc00642e000020200000202a00000a2a0000a0
:1044cc00204f00006e200000746800006520000082
:1044dc0050490000433200003448000033320000e1
:1044ec004750000032300000322c0000206e0000db
:1044fc006f740000206300006f6e00006e6500009a
:10450c0063740000696e00006720000041560000d3
:10451c004444000020200000202000002020000047
:10452c0020200000202000002a0a00002a20000081
:10453c00707200006f64000075630000657300000a
:10454c002074000068690000732000006d65000095
:10455c007373000061670000652000006f6e00003f
:10456c006c7900002061000074200000706f000066
:10457c0077650000722d0000757000002e20000081
:10458c00202000002020000020200000202000001f
:10459c0020200000202a00000a2a00002a2a0000fd
:1045ac002a2a00002a2a00002a2a00002a2a0000af
:1045bc002a2a00002a2a00002a2a00002a2a00009f
:1045cc002a2a00002a2a00002a2a00002a2a00008f
:1045dc002a2a00002a2a00002a2a00002a2a00007f
:1045ec002a2a00002a2a00002a2a00002a2a00006f
:1045fc002a2a00002a2a00002a2a00002a2a00005f
:10460c002a2a00002a0a00000046000061730000fc
:10461c007420000052430000204f00007363000020
:10462c000a00000046610000737400002052000074
:10463c00432000004f7300006320000077690000e6
:10464c0074680000205000004c4c00000a00000070
:10465c0050720000696d000061720000792000004a
:10466c004f7300006320000028580000542c0000f9
:10467c0020480000532c0000204500004329000076
:10468c000a00000050720000696d000061720000a9
:10469c00792000004f7300006320000028580000b0
:1046ac00542c000020480000532c00002045000032
:1046bc004329000020770000697400006820000086
:1046cc00504c00004c0a00000053000065630000d1
:1046dc006f6e00006461000072790000204f0000d2
:1046ec00736300000a0000004c6f0000772000008c
:1046fc00506f0000776500007220000052430000ec
:10470c00204f0000736300000a00000046610000a7
:10471c007374000020520000432000004f7300000f
:10472c00632f0000313600000a00000046610000d3
:10473c007374000020520000432000004f730000ef
:10474c00632f00004e0a0000005500006e6b000045
:10475c006e6f0000776e0000206f00007363000026
:10476c00696c00006c610000746f00007220000026
:10477c0074790000706500002e0000000a440000ef
:10478c006576000069630000652000006861000028
:10479c007320000062650000656e00002069000057
:1047ac006e200000736c0000656500007020000036
:1047bc006d6f0000646500000a0000000a440000f0
:1047cc0065760000696300006520000068610000e8
:1047dc007320000062650000656e00002069000017
:1047ec006e200000696400006c650000206d000004
:1047fc006f640000650a0000000a000052650000aa
:10480c007365000074200000636100007573000084
:10481c00653a000020000000506f00007765000032
:10482c00722d00006f6e00002e0a00000053000075
:10483c006f66000074770000617200006520000054
:10484c005265000073650000742e00000a00000021
:10485c005761000074630000686400006f6700001b
:10486c0020540000696d0000656f00007574000035
:10487c003a200000000a0000004d0000434c0000ec
:10488c005220000061730000736500007274000018
:10489c00696f00006e2e00000a00000042720000da
:1048ac006f7700006e2d00006f750000742e0000f5
:1048bc000a000000547200006170000020430000e8
:1048cc006f6e0000666c000069630000742e0000bf
:1048dc000a000000496c00006c6500006761000074
:1048ec006c200000436f00006e64000069740000cf
:1048fc00696f00006e2e00000a000000556e00006b
:10490c006b6e00006f7700006e2000007265000077
:10491c0073650000742e00000a0000004572000050
:10492c00726f000072200000747200006170000051
:10493c0070650000643a0000200000005072000016
:10494c00696f000072690000747900003a20000061
:10495c00002c00002056000065630000746f0000fe
:10496c00722000006e7500006d6200006572000020
:10497c003a200000000a00000a0000004572000006
:10498c00726f000072200000696e0000202e000083
:10499c002e2f00002e2e00002f6c000069620000ec
:1049ac002f730000726300002f7000006963000019
:1049bc00323400005f750000746900006c2e00003a
:1049cc00632000006c6900006e650000203400005c
:1049dc00363900003a2000004153000053450000d6
:1049ec005254000028750000313600005f62000050
:1049fc0072670000682000003c3d00002031000080
:104a0c002920000066610000696c000065640000ec
:104a1c002e0a000000450000727200006f72000048
:104a2c00206900006e2000002e2e00002f2e0000aa
:104a3c002e2f00006c690000622f000073720000c2
:104a4c00632f00007069000063320000345f0000c7
:104a5c0075740000696c00002e630000206c00006f
:104a6c00696e00006520000034370000353a000004
:104a7c002041000053530000455200005428000010
:104a8c00665f000062720000672000003c2000009e
:104a9c003635000035330000352e00003529000076
:104aac0020660000616900006c650000642e000047
:104abc000a00000055410000525400003120000053
:104acc0070610000726900007479000020650000bc
:104adc00727200006f7200000a0000005541000065
:104aec00525400003120000066720000616d00001d
:104afc00696e00006720000065720000726f000094
:104b0c00720a0000005500004152000054310000b0
:104b1c00206f00007665000072720000756e000058
:104b2c0020650000727200006f7200000a00000025
:104b3c0045720000726f000072200000696e000068
:104b4c00202e00002e2f00002e2e00002f6c0000b7
:104b5c00696200002f730000726300002f70000068
:104b6c0069630000323400005f7500006172000060
:104b7c00742e0000632000006c6900006e6500005c
:104b8c0020330000353200003a2000004153000071
:104b9c0053450000525400002875000033320000c9
:104bac005f620000617500006452000061740000d7
:104bbc00652000003e3d0000203100003030000038
:104bcc00304c00002920000066610000696c000078
:104bdc00656400002e0a00000055000041520000e0
:104bec0054320000207000006172000069740000f3
:104bfc007920000065720000726f0000720a0000dc
:104c0c0000550000415200005432000020660000a4
:104c1c00726100006d6900006e6700002065000085
:104c2c00727200006f7200000a0000005541000013
:104c3c0052540000322000006f76000065720000b4
:104c4c00727500006e20000065720000726f00002b
:104c5c00720a000000450000727200006f720000c2
:104c6c00206900006e2000002e2e00002f2e000068
:104c7c002e2f00006c690000622f00007372000080
:104c8c00632f00007069000063320000345f000085
:104c9c0075610000727400002e630000206c00002f
:104cac00696e00006520000037330000373a0000c1
:104cbc0020410000535300004552000054280000ce
:104ccc0075330000325f0000626100007564000003
:104cdc005261000074650000203e00003d20000081
:104cec0031300000303000004c29000020660000fc
:104cfc00616900006c650000642e00000a00000071
:104d0c0045720000726f000072200000696e000096
:104d1c00202e00002e2f00002e2e00002f6c0000e5
:104d2c00696200002f730000726300002f70000096
:104d3c0069630000323400005f730000657200008c
:104d4c00696100006c2e0000632000006c6900009b
:104d5c006e65000020380000303a00002049000049
:104d6c006e760000616c0000696400002055000044
:104d7c004152000054000000307800000045000053
:104d8c00727200006f720000206900006e2000003b
:104d9c002e2e00002f2e00002e2f00006c6900001c
:104dac00622f000073720000632f00007069000016
:104dbc0063320000345f000073650000726900000c
:104dcc00616c00002e630000206c0000696e000016
:104ddc006520000032390000353a000020490000ff
:104dec006e760000616c00006964000020550000c4
:104dfc00415200005400000045720000726f000028
:104e0c0072200000696e0000202e00002e2f000082
:104e1c002e2e00002f6c0000696200002f73000022
:104e2c00726300002f7000006963000032340000d0
:104e3c005f73000065720000696100006c2e000059
:104e4c00632000006c6900006e65000020330000d8
:104e5c00333400003a200000496e000076610000f7
:104e6c006c690000642000005541000052540000a1
:104e7c0000050000030200000100000050c3000008
:104e8c0030750000204e0000102700008813000031
:104e9c00b80b0000d0070000e8030000f40100008c
:104eac002c010000c800000064000000320000006b
:104ebc001e000000140000000a00000005000000a5
:104ecc0003000000020000000100000005030000c8
:104edc00020100000503000002010000321e000068
:104eec00140a0000050300000201000045720000d6
:104efc00726f000072200000696e0000202e00000e
:104f0c002e2f00002e2e00002f6c00006962000076
:104f1c002f730000726300002f70000069630000a3
:104f2c00323400005f740000696d0000657200008f
:104f3c002e630000206c0000696e000065200000ec
:104f4c00353800003a200000415300005345000062
:104f5c0052540000286600005f7400006963000072
:104f6c006b730000203c000020360000353500003b
:104f7c00333500002e35000029200000666100004a
:104f8c00696c0000656400002e0a000000450000fa
:104f9c00727200006f720000206900006e20000029
:104fac002e2e00002f2e00002e2f00006c6900000a
:104fbc00622f000073720000632f00007069000004
:104fcc0063320000345f0000746900006d650000fe
:104fdc00722e0000632000006c6900006e650000fa
:104fec0020370000363a00002041000053530000e7
:104ffc004552000054280000665f000074690000f0
:10500c00636b0000732000003c200000363500006c
:10501c0035330000352e00003529000020660000d5
:10502c00616900006c650000642e00000a0000003d
:10503c0045720000726f000072200000696e000063
:10504c00202e00002e2f00002e2e00002f6c0000b2
:10505c00696200002f730000726300002f70000063
:10506c0069630000323400005f740000696d000059
:10507c00657200002e630000206c0000696e000059
:10508c006520000031360000303a0000204100005d
:10509c00535300004552000054280000753800009e
:1050ac005f540000434b000050530000203c0000b4
:1050bc003d200000332900002066000061690000db
:1050cc006c650000642e00000a00000043680000bc
:1050dc006f6f0000736500002073000065720000a4
:1050ec00766f000020280000312c0000322c0000cc
:1050fc00332c0000342900003a2000000025000069
:10510c0064000000496e0000766100006c690000cc
:10511c006420000073650000727600006f2e0000a2
:10512c002e000000456e0000746500007220000027
:10513c00707500006c73000065200000776900003a
:10514c006474000068200000286d0000696e000087
:10515c0020360000303000002c2000006d61000073
:10516c00782000003234000030300000293a000072
:10517c0020000000496e0000766100006c690000a0
:10518c0064200000707500006c7300006520000046
:10519c007769000064740000682e00002e00000087
:1051ac000a2e00002e2f00006c6900006e650000b6
:1051bc00466f00006c6c00006f7700006572000099
:1051cc002e6300002c20000062750000696c00004a
:1051dc00742000006f6e000020530000657000000a
:1051ec00203100003120000032300000313400004a
:1051fc002061000074200000323000003a340000be
:10520c00323a0000353100000a000000256400002d
:10521c002d00000009200000257500002009000069
:10522c0020250000690000000920000044720000e5
:10523c006976000065200000526900006768000074
:10524c007420000000090000204400007269000076
:10525c0076650000204c000065660000742000009c
:10526c00000900002044000072690000766500000f
:10527c00204600006f72000077610000726400002d
:10528c00200000000a0a0000596f0000757200002f
:10529c00206300006c6f0000636b00002063000053
:1052ac00686f000069630000652000006661000003
:1052bc00696c000065640000207400006f20000021
:1052cc00696e000069740000696100006c6900007f
:1052dc007a6500002e200000536500006520000058
:1052ec002e2e00002f2e00002e2f00006c690000c7
:1052fc00622f000073720000632f000070690000c1
:10530c0063320000345f0000636c00006f630000c8
:10531c006b66000072650000712e000063200000b7
:10532c006c6900006e65000020310000343600000e
:10533c00206600006f720000206d00006f7200008c
:10534c00652000006465000074610000696c000059
:10535c00732e000000450000727200006f72000096
:10536c00206900006e2000002e2e00002f2e000061
:10537c002e2f00006c690000622f00007372000079
:10538c00632f00007069000063320000345f00007e
:10539c00636c00006f6300006b66000072650000b8
:1053ac00712e0000632000006c6900006e65000027
:1053bc0020310000373200003a2000004153000039
:1053cc00534500005254000028750000385f00005f
:1053dc00736f00007572000063650000203c0000d4
:1053ec00203800002920000066610000696c000074
:1053fc00656400002e0a0000000000004932000025
:10540c004350000055540000312c0000204e000089
:10541c00414b0000207200006574000075720000a2
:10542c006e650000642e000000490000324300004d
:10543c0050550000543200002c2000004e4100005a
:10544c004b2000007265000074750000726e000045
:10545c00656400002e00000020250000752000006f
:04546c000900000033
:020000040000fa
:105470002f09070000000600889fbe000004be0040
:10548000790b07004c4add004444de00080472003a
:10549000c44cde00444180005541800004024400b9
:1054a00085824c0044418800554188004f04be006d
:1054b00000000600040320008408880080088000a3
:1054c0004400de0063406000d908070080007800d7
:1054d00000e224005e0807000000e9006008880080
:1054e0000621ef00000006003068ef002a03a80044
:1054f000cc22a9002a23a800cc42a900e4c2a9001a
:10550000e4c6a9006900a900e4e2a900e4e6a90054
:105510006920a900800880004400de00634060002c
:10552000c308070080007800c05d2000480807001d
:1055300004822000000a78001002980020029800df
:1055400030029800d022a900d042a900e8c2a900e8
:10555000e8e2a900800880004400de0063406000ab
:10556000b30807008000780000af2000380807006b
:105570009041880000000600014278000080fb0096
:1055800001002000e30f5000e08f580024003e008f
:1055900000600100030037000a00370011003700e7
:1055a000180037006102620004024200d5ff2f009c
:1055b000861680008682620004827200841688004b
:1055c00017003700610262004222dd00b5ff2f00a4
:1055d000861680008682620004827200841688002b
:1055e0000f003700610262004622dd00f5fb2f004c
:1055f0004617800086826200048272004417880089
:1056000007003700610262004722dd00f5f72f0036
:105610004617800086826200048272004417880068
:10562000000006003600f800809fbe00829fbe008a
:10563000849fbe00869fbe003400f800000020005a
:10564000a00188008440a9001183200091407800c7
:1056500030c8bf00c8ff0700148320001442780040
:10566000e14f520009003a00048320001442780000
:105670000482fb00040242000582200065007a00db
:105680008221b4003168ef00150037000483200048
:1056900014427800e34f52000800320004832000d7
:1056a00014427800954180000482fb000402e80067
:1056b00005a2b900140c8800010037008221ef0018
:1056c00010c0b30031e8b7003068ec00048320005c
:1056d00014427800e44f520001003a003068ef00b5
:1056e0003400f9004f03be004f02be004f01be0060
:1056f0004f00be003600f9000040060011e1a9008d
:105700008221ef0034002000240c88008440a9008e
:10571000240580000480a0000490a10004a0a10042
:10572000240588009440a800000006000400fa0048
:10573000881f7800c4862a00841f7800f5f40700cb
:10574000f101200000802000820707008e1f7800f2
:1057500054882a00841f7800008020005af3070034
:105760001e02e900e6875700e30f520003003600ef
:1057700080882a004af307002100370084892a0024
:10578000841f7800e3f40700f1012000008020006e
:10579000700707008e9fe80054882a00841f780055
:1057a0000080200048f307009e0290008525b1008c
:1057b000e687570084702000848f52000300360073
:1057c000008c2a0036f307000d0037009440a90032
:1057d0001e04e900800880004400de006340600091
:1057e00013080700800078001e009000980707004b
:1057f000080444000482200000327c009440a80089
:105800004f0478000080fa0000000600889fbe0068
:10581000810478009440a9000004e9008008800019
:105820004400de006340600001080700800078004b
:10583000090078008607070008044400048220005d
:1058400000327c009440a80000902000d10320008a
:1058500009ff07004f04be0000000600801f78000b
:10586000841f780021e1a9001821ef0010c0b300c7
:1058700036e8b7008780a9004f0278004f00780013
:105880000040060004032000040988001821ef00ee
:105890008780a900940580000400a0000410a100e6
:1058a0000420a100940588009780a80021e1a900a8
:1058b00000000600801f7800841f78002de1a900f9
:1058c0000002eb00240988001409880010c0b3000e
:1058d00036e8b7008a00a9004f0278004f00780030
:1058e00000400600840020006409880004b0230002
:1058f0004409880084852000540988000002eb00d8
:1059000024098800140988008a00a900e4058000a1
:105910000400a0000410a1000420a100e4058800f8
:105920009a00a8002de1a90000000600889fbe0093
:105930008a9fbe008c1f78000006780011c0b3005b
:105940000c007800130607008c0578000005eb00ba
:105950006044b8000a05e8003bd0b900010020000f
:10596000def107000001be000800be000ef10700d6
:105970000004be00ef0f5500f6ff3a006011b800ba
:10598000b7f10700000278000000eb00800f520022
:105990000e003200000278003c0040000402e800e3
:1059a000ef0f5200fcff3a0001002000cbf107008e
:1059b0000001be000800be0058f1070002002000f0
:1059c000a34724001af20700a9f107004f06780048
:1059d0004f05be004f04be00000006000400fa00a0
:1059e000889fbe008a9fbe008c9fbe000205be003d
:1059f000ceff070001002000b8f107000004be0040
:105a00006011b80096f10700e00f5000220032004c
:105a100002002000030924000a00be003ff1070035
:105a200080bf9f0091bf9f000001be000800be0024
:105a3000fff107000006be000801be0000002000c4
:105a400001112400d7f007000fb997009fb9970004
:105a5000f7f107000004be000a01be000c00be0002
:105a600081f10700e00f5000010034000a06be007b
:105a70000a01be000800be007bf10700e00f5000e5
:105a8000010034000a04be000c00be002b09070010
:105a90000800be001d0907004f06be004f05be00ee
:105aa0004f04be000080fa00000006000400fa0067
:105ab000889fbe008a9fbe008c9fbe000205be006c
:105ac0009aff07000100200084f107000004be00d7
:105ad0006011b80062f10700e00f500022003200b0
:105ae00002002000030924000a00be000bf1070099
:105af00080bf9f0091bf9f000001be000800be0054
:105b0000cbf107000006be000801be000000200027
:105b100001112400a3f007000fb997009fb9970067
:105b2000c3f107000004be000a01be000c00be0065
:105b30004df10700e00f5000010034000a06be00de
:105b40000a01be000800be0047f10700e00f500048
:105b5000010034000a04be000c00be00ef0807007c
:105b60000800be00f90807004f06be004f05be0042
:105b70004f04be000080fa00000006001400200060
:105b8000900f12000d003a0040029000e10f520009
:105b90001800320050029000e10f5200170032004e
:105ba00060029000e10f5200160032007002900077
:105bb000e10f52000e003a0014003700f00290008e
:105bc0000042eb00e18f520017003a0010029000f3
:105bd000e10f52000f00320020029000e10f52004e
:105be0000e00320030029000e10f52000d00320032
:105bf0000e00370014c0b3000b00370014c0b30010
:105c00000900370014c0b3000700370014c0b30008
:105c10000500370014c0b3000300370014c0b30000
:105c20000100370014c0b3000440780000000600f3
:105c300014002000900f120010003a003002900073
:105c4000e10f52001e00320040029000e10f5200ae
:105c50001d00320050029000e10f52001c00320083
:105c600060029000e10f52001b00320070029000b1
:105c7000e10f520011003a0019003700f0029000c5
:105c80000042eb00e18f52001e003a00100290002b
:105c9000e10f52001400320020029000e10f520088
:105ca0001300320030029000e10f52001200320067
:105cb00040029000e10f5200110032001200370044
:105cc00014c0b3000f00370014c0b3000d0037003c
:105cd00014c0b3000b00370014c0b3000900370034
:105ce00014c0b3000700370014c0b300050037002c
:105cf00014c0b3000300370014c0b3000100370024
:105d000014c0b3000440780000000600889fbe0065
:105d1000800478000004eb0035080700e04f5000d5
:105d200008003500ea4f500003003a000042eb0043
:105d300084747c000500370080747c000804e8004f
:105d4000f5ff3700ea4f5000f3ff3a004f04be0062
:105d500000000600881f78000004780018407800d2
:105d6000e04f5000040032000d0807005840780052
:105d7000e04f5000fcff3a004f047800000006009e
:105d80000f02b000889fbe008a9fbe008c9fbe009d
:105d90008e1f7800b6fd070000b02400010020002f
:105da0000006070033030700608d2a001b0507006b
:105db00095020700bffd0700cbfd07004ffe07005f
:105dc00011e1a80010c0b300cf0407008e4a2e00d6
:105dd000f0845700ca902a0040fd2f000f004000b9
:105de000d2fe0700000678008e0646008d0578007a
:105df00028fd2f000f044400d81f78008a1f780068
:105e00003df30700e4875700890f5400faff3a007a
:105e10008b1f78008c1f780004912a00841f780063
:105e200035f30700e6875700843e2000848f550035
:105e3000180034009440a900800880004400de006f
:105e4000634060007a06070080007800007d200033
:105e5000ff05070008822000000c78008008800001
:105e60004400de0063406000710607008000780097
:105e7000c05d2000f6050700100498009440a800bb
:105e800000902000d10320007bfd0700a0912a0094
:105e900083f1070084c12f00848f550018003d0056
:105ea0009440a900800880004400de006340600048
:105eb0005f06070080007800c05d2000e405070051
:105ec00008822000000c7800800880004400de007a
:105ed000634060005606070080007800803e200086
:105ee000db050700100498009440a80000902000f3
:105ef000d103200060fd070090922a0068f107009e
:105f00008d3eb000047d2000848f5600b2ff3e001d
:105f10009440a900800880004400de0063406000d7
:105f20004306070080007800007d2000c8050700b8
:105f300008822000000c7800800880004400de0009
:105f4000634060003a06070080007800803e200031
:105f5000bf050700100498009440a800009020009e
:105f6000d103200044fd070070932a004cf1070084
:105f700099ff3700000178000300200000c42900c9
:105f80000100200027f0070065025000f51f2000e7
:105f9000850f5200010036000502780024108800a9
:105fa00007e2a80000000600053a8000c52ade00ce
:105fb000e1c2620040a7a8000602a8000602ab00ea
:105fc000feff3a00e1826200c52add00f4fd2f00e9
:105fd000063a80000602620005027200043a880058
:105fe0003c28ef0000000600053a8000c52ade00cc
:105ff000e1c2620040a7a8000622a8000622ab006a
:10600000feff3a00e1826200c52add00f4fd2f00a8
:10601000063a80000602620005027200043a880017
:106020003c28ef0000000600053a8000c52ade008b
:10603000e1c2620040a7a8000642a8000642ab00e9
:10604000feff3a00e1826200c52add00f4fd2f0068
:10605000063a80000602620005027200043a8800d7
:106060003c28ef0000000600063a80004533de00c1
:106070006143630040a7a8000080fb001010880067
:10608000050024004710800007826200e00f5200e4
:10609000fcff3a00e1026300c52add00f4fd2f0099
:1060a000063a80000602620005027200043a880087
:1060b0003c28ef000400280047108000070262001f
:1060c000e00f52000200320040a02a00da0107006f
:1060d00000000600063a80004533de00614363009d
:1060e00040a7a8000080fb001010880005002400d5
:1060f0004710800007826200e00f5200fcff3a0068
:10610000e1026300c52add00f4fd2f00063a80009d
:106110000602620005027200043a88003c28ef0083
:10612000401080004f00de000000060000437800b1
:10613000053a8000c52ade00e1c2620040a7a8003f
:10614000341080007f026200fdff3a000662a80062
:106150000822ab00feff32000060fe00001080004d
:10616000341080007f026200fdff3a00610363008b
:106170004533dd00f4fd2f00371080000702620078
:1061800006027200341088000682a8000682ab0066
:10619000feff3a00e1826200c52add00f4fd2f0017
:1061a000063a80000602620005027200043a880086
:1061b0003c28ef0000000600889fbe0000447800e5
:1061c0008144780078ff0700084078000004a100af
:1061d000a5ff070009407800a3ff070092ff070012
:1061e0004f04be0000000600889fbe008a1f780092
:1061f0000044780081447800024578006aff070077
:10620000084078000004a10097ff070009407800cb
:1062100095ff07000a40780093ff070082ff070000
:106220004f0578004f04be0000000600889fbe00a6
:106230008a1f780000447800810478000205780005
:1062400059ff0700084078000004a10086ff0700fe
:10625000e00f5500060032000004eb0039407800e2
:1062600081ff07000804e800880f5500fbff3e008f
:106270006dff07004f0578004f04be0000000600c8
:10628000889fbe00004478008104780046ff070024
:10629000084078000004a00073ff070010c0b3009e
:1062a000a2ff0700804c78005fff07004f04be008c
:1062b00000000600889fbe008a1f78000044780016
:1062c000810478000205780037ff07000840780055
:1062d0000004a00064ff07000040eb0093ff0700ec
:1062e000804c780010c0b30090ff0700004d78008c
:1062f0004dff07004f0578004f04be000000060068
:10630000889fbe008a9fbe008c1f780000447800e2
:10631000810478000205780023ff07000840780018
:106320000004a00050ff0700e00f550011003200ec
:106330000004eb008a05e9001cc0b300888f5500fb
:10634000040032000040eb0078ff0700804c78002a
:10635000030037000c40780074ff0700804c780081
:106360000804e800880f5500020036008904e800a0
:10637000f2ff37002cff07004f0678004f05be00e4
:106380004f04be000000060000017800030020005a
:1063900000c429000100200022ef07006502500020
:1063a000f51f2000850f520001003600050278001d
:1063b000a410880017e2a80000000600053a80003b
:1063c000c52ade00e1c2620040a7a8001602a800ac
:1063d0001602ab00feff3a00e1826200c52add0032
:1063e000f4fd2f00063a80000602620005027200ea
:1063f000043a88003c28ef0000000600053a8000bf
:10640000c52ade00e1c2620040a7a8001622a8004b
:106410001622ab00feff3a00e1826200c52add00d1
:10642000f4fd2f00063a80000602620005027200a9
:10643000043a88003c28ef0000000600053a80007e
:10644000c52ade00e1c2620040a7a8001642a800eb
:106450001642ab00feff3a00e1826200c52add0071
:10646000f4fd2f00063a8000060262000502720069
:10647000043a88003c28ef0000000600063a80003d
:106480004533de006143630040a7a8000080fb00a5
:106490009010880005002400c71080000782620069
:1064a000e00f5200fcff3a00e1026300c52add0064
:1064b000f4fd2f00063a8000060262000502720019
:1064c000043a88003c28ef0004002800c710800030
:1064d00007026200e00f520002003200b0a12a0061
:1064e000d500070000000600063a80004533de00b4
:1064f0006143630040a7a8000080fb009010880063
:1065000005002400c710800007826200e00f5200df
:10651000fcff3a00e1026300c52add00f4fd2f0014
:10652000063a80000602620005027200043a880002
:106530003c28ef00c01080004f00de000000060085
:1065400000437800053a8000c52ade00e1c26200ff
:1065500040a7a800b41080007f026200fdff3a004f
:106560001662a8001822ab00feff32000060fe0099
:1065700080108000b41080007f026200fdff3a00ae
:10658000610363004533dd00f4fd2f00b710800088
:106590000702620006027200b41088001682a8008a
:1065a0001682ab00feff3a00e1826200c52add00e0
:1065b000f4fd2f00063a8000060262000502720018
:1065c000043a88003c28ef0000000600889fbe00c7
:1065d000004478008144780078ff07000840780084
:1065e0000004a100a5ff070009407800a3ff0700f1
:1065f00092ff07004f04be0000000600889fbe0007
:106600008a1f7800004478008144780002457800b1
:106610006aff0700084078000004a10097ff070008
:106620000940780095ff07000a40780093ff0700b3
:1066300082ff07004f0578004f04be0000000600ef
:10664000889fbe008a1f780000447800810478008b
:106650000205780059ff0700084078000004a100f7
:1066600086ff0700e00f5500060032000004eb0033
:106670003940780081ff07000804e800880f5500c2
:10668000fbff3e006dff07004f0578004f04be0082
:1066900000000600889fbe00004478008104780056
:1066a00046ff0700084078000004a00073ff0700c1
:1066b00010c0b300a2ff0700804c78005fff070006
:1066c0004f04be0000000600889fbe008a1f7800ad
:1066d00000447800810478000205780037ff070045
:1066e000084078000004a00064ff07000040eb00b1
:1066f00093ff0700804c780010c0b30090ff0700a4
:10670000004d78004dff07004f0578004f04be0094
:1067100000000600889fbe008a9fbe008c1f780084
:1067200000447800810478000205780023ff070008
:10673000084078000004a00050ff0700e00f55005b
:10674000110032000004eb008a05e9001cc0b30010
:10675000888f5500040032000040eb0078ff0700ee
:10676000804c7800030037000c40780074ff07006d
:10677000804c78000804e800880f550002003600bd
:106780008904e800f2ff37002cff07004f0678006d
:106790004f05be004f04be00000006006404070061
:1067a00000000600551680008582ea00cf2ade0030
:1067b000cf2add00f4ff2700561680000602620093
:1067c0000502720054168800000006004641800051
:1067d0005741800061024300e0824b004441880041
:1067e000554188006641800077418000860f520045
:1067f000878f5a0003003600eaff07002828ef00c1
:106800002a28ef00000006002de3a800c7e2a90037
:106810006980a90004a82100644188006400200068
:10682000744188002828ef002a28ef00cbe2a90055
:10683000e6ff070000000600f4418000e00f520070
:1068400002003a00f04188000000fe00000006004f
:10685000e04f500002003a0001007800f6ff070008
:10686000000006003600f800809fbe00829fbe0038
:10687000849fbe00869fbe003400f8000000200008
:10688000a0018800e000f8004008f900e0012a00bb
:10689000e9ff07003400f9004f03be004f02be00bd
:1068a0004f01be004f00be003600f9000040060058
:1068b000000278004008de0032e0b7001480ba0021
:1068c0001402ba0001002000c000dd00000020001a
:1068d00005002000040070008580700000000600a4
:1068e000889fbe008a9fbe008c9fbe008e1f7800ce
:1068f00000002000f10f2000edff07000006be00a1
:1069000020002000f10f2000e9ff07000005be0075
:1069100094042000840f5600e08f5e0003003a00cc
:106920004e032a0019c0b300020037003e042a00bb
:106930008044eb00e8042a00a4002300840f5500e3
:10694000e08f5d000b00320018052a00b400230020
:10695000840f5500e08f5d0006003200b8042a0065
:1069600094002300840f5500e08f5d000100320089
:1069700038042a0040052a00280207000c00be0047
:106980005a02070010062a00240207000e007800b1
:106990002202070040062a00200207000a00be006b
:1069a0005202070010062a001c02070008007800a7
:1069b0001a02070010072a0018020700e0cf54004f
:1069c00002003a0040072a00140207004f0778002f
:1069d0004f06be004f05be004f04be00000006007b
:1069e000143a80004c22de0067026200cfa2de0073
:1069f0000460010007003700090037000b00370072
:106a00000d0037000f00370011003700130037006a
:106a100015003700b0302a000002070014003700cc
:106a200080312a00fd01070011003700e0322a0002
:106a3000fa0107000e00370080342a00f701070032
:106a40000b003700b0362a00f401070008003700b9
:106a5000a0372a00f101070005003700c0382a00de
:106a6000ee01070002003700c0392a00eb010700e1
:106a7000000006004067ab0003003200403c2a00e3
:106a8000e60107004067a9004047ab000300320061
:106a9000403e2a00e10107004047a90030402a009b
:106aa000de0107004007ab000900320020412a0048
:106ab000da0107004007a9004027a9000002eb0007
:106ac000f4418800e4418800044288003d0037001a
:106ad00005042000043a8000848262000042eb003a
:106ae000e08f520005003200d0412a00cb010700a0
:106af00040c7a90040e7a90014c0b3004087ab001d
:106b00000b003200e0422a00c4010700e04180008f
:106b1000e00f500001003200c001070010442a00bd
:106b2000be0107004087a90040e7a90014c0b300d8
:106b300005082000063a800086826200e08f52003d
:106b40000400320030442a00b401070040e7a900e5
:106b500014c0b3004027ab000400320040452a00b7
:106b6000ae0107004027a90014c0b30005002800ab
:106b7000063a800086826200e08f520004003200f4
:106b800000462a00a501070041e7a90014c0b30090
:106b900005002400063a800086826200e08f5200e1
:106ba0000400320000472a009c01070041c7a900e9
:106bb00004003700e04f520002003a0040482a002b
:106bc00096010700f4418000e00f520017003200e8
:106bd00040492a0091010700f04180008f01070021
:106be00004428000e00f52000b003200404a2a00ad
:106bf0008a010700004280004800de006f4060000c
:106c0000a8010700f04a2a00840107000042800022
:106c10000074a100a3010700104c2a007f010700a7
:106c20000002eb00f4418800044288002cff0700ba
:106c30006bff070000000600881f78000004780042
:106c4000f1fe0700d5fe07000040280031002000bb
:106c50005402070087ff0700080078006f01070053
:106c60004f04780000000600889fbe008a9fbe0087
:106c70000005be00feec07000004be0017ed070093
:106c80000001be000a00be0046ec07000200200022
:106c900003f02300f2ec0700e00f50000200350083
:106ca00061044400e0844c000800be004f05be00b3
:106cb0004f04be0000000600889fbe008a1f7800b7
:106cc0000004be00eaec0700000578006150b8003f
:106cd00002ed07000001be000800be0031ec070015
:106ce0000200200003f02300ddec0700e00f50005d
:106cf000010035000a05e8000a0078004f05780019
:106d00004f04be0000000600889fbe008a9fbe00a0
:106d10008c1f78000004be00020678000405be0047
:106d200010c0b300e10f5600010036000040eb0038
:106d3000414c2a00c6fe0700e00f560010003a0042
:106d40000800be00e5ec07000004be000a00be001b
:106d5000e2ec07000001be000800be006fec070077
:106d60000200200003d8230031ed070002002000bc
:106d700003f823000bec07000004be000f003700ef
:106d80000800be00d5ec07000004be000a00be00eb
:106d9000d2ec07000001be000800be005fec070057
:106da0000200200003e8230021ed0700020020007c
:106db00003f82300fbeb07000004be001ac0b30079
:106dc00002f82f00f37724000800be00a4ec0700af
:106dd000e00f5000010035000045eb0011512a0082
:106de0000a4078009afe07000800be00b2ff0700c4
:106df0004f0678004f05be004f04be00000006009d
:106e0000889fbe000004be00170507004c4add0045
:106e10004444de0008047200c44cde00444180009b
:106e2000554180000402440085824c0044418800a2
:106e3000554188004f04be00000006002c03a80046
:106e4000c602a9006840a9002c23a800c622a900f8
:106e50006860a9002c43a800c642a9006880a90068
:106e60002c63a800c662a90068a0a9002c83a80012
:106e7000c682a90068c0a9002ca3a800c6a2a900c8
:106e800068e0a9002cc3a800c6c2a9002ce3a80092
:106e9000c6e2a9002d03a800c702a9002d23a8005f
:106ea000c722a9002d43a800c742a9002d63a8004e
:106eb000c762a9002d83a800c782a9002da3a8003e
